{
  "_format": "hh-sol-artifact-1",
  "contractName": "DengDefenseTowersV5",
  "sourceName": "contracts/DengDefenseTowersV5.sol",
  "abi": [
    {
      "inputs": [
        {
          "internalType": "address",
          "name": "target",
          "type": "address"
        }
      ],
      "name": "AddressEmptyCode",
      "type": "error"
    },
    {
      "inputs": [
        {
          "internalType": "address",
          "name": "implementation",
          "type": "address"
        }
      ],
      "name": "ERC1967InvalidImplementation",
      "type": "error"
    },
    {
      "inputs": [],
      "name": "ERC1967NonPayable",
      "type": "error"
    },
    {
      "inputs": [
        {
          "internalType": "address",
          "name": "sender",
          "type": "address"
        },
        {
          "internalType": "uint256",
          "name": "tokenId",
          "type": "uint256"
        },
        {
          "internalType": "address",
          "name": "owner",
          "type": "address"
        }
      ],
      "name": "ERC721IncorrectOwner",
      "type": "error"
    },
    {
      "inputs": [
        {
          "internalType": "address",
          "name": "operator",
          "type": "address"
        },
        {
          "internalType": "uint256",
          "name": "tokenId",
          "type": "uint256"
        }
      ],
      "name": "ERC721InsufficientApproval",
      "type": "error"
    },
    {
      "inputs": [
        {
          "internalType": "address",
          "name": "approver",
          "type": "address"
        }
      ],
      "name": "ERC721InvalidApprover",
      "type": "error"
    },
    {
      "inputs": [
        {
          "internalType": "address",
          "name": "operator",
          "type": "address"
        }
      ],
      "name": "ERC721InvalidOperator",
      "type": "error"
    },
    {
      "inputs": [
        {
          "internalType": "address",
          "name": "owner",
          "type": "address"
        }
      ],
      "name": "ERC721InvalidOwner",
      "type": "error"
    },
    {
      "inputs": [
        {
          "internalType": "address",
          "name": "receiver",
          "type": "address"
        }
      ],
      "name": "ERC721InvalidReceiver",
      "type": "error"
    },
    {
      "inputs": [
        {
          "internalType": "address",
          "name": "sender",
          "type": "address"
        }
      ],
      "name": "ERC721InvalidSender",
      "type": "error"
    },
    {
      "inputs": [
        {
          "internalType": "uint256",
          "name": "tokenId",
          "type": "uint256"
        }
      ],
      "name": "ERC721NonexistentToken",
      "type": "error"
    },
    {
      "inputs": [],
      "name": "EnforcedPause",
      "type": "error"
    },
    {
      "inputs": [],
      "name": "ExpectedPause",
      "type": "error"
    },
    {
      "inputs": [],
      "name": "FailedCall",
      "type": "error"
    },
    {
      "inputs": [],
      "name": "InvalidInitialization",
      "type": "error"
    },
    {
      "inputs": [],
      "name": "NotInitializing",
      "type": "error"
    },
    {
      "inputs": [
        {
          "internalType": "address",
          "name": "owner",
          "type": "address"
        }
      ],
      "name": "OwnableInvalidOwner",
      "type": "error"
    },
    {
      "inputs": [
        {
          "internalType": "address",
          "name": "account",
          "type": "address"
        }
      ],
      "name": "OwnableUnauthorizedAccount",
      "type": "error"
    },
    {
      "inputs": [],
      "name": "ReentrancyGuardReentrantCall",
      "type": "error"
    },
    {
      "inputs": [],
      "name": "Soulbound",
      "type": "error"
    },
    {
      "inputs": [],
      "name": "UUPSUnauthorizedCallContext",
      "type": "error"
    },
    {
      "inputs": [
        {
          "internalType": "bytes32",
          "name": "slot",
          "type": "bytes32"
        }
      ],
      "name": "UUPSUnsupportedProxiableUUID",
      "type": "error"
    },
    {
      "anonymous": false,
      "inputs": [],
      "name": "AdminFunctionsLocked",
      "type": "event"
    },
    {
      "anonymous": false,
      "inputs": [
        {
          "indexed": true,
          "internalType": "address",
          "name": "owner",
          "type": "address"
        },
        {
          "indexed": true,
          "internalType": "address",
          "name": "approved",
          "type": "address"
        },
        {
          "indexed": true,
          "internalType": "uint256",
          "name": "tokenId",
          "type": "uint256"
        }
      ],
      "name": "Approval",
      "type": "event"
    },
    {
      "anonymous": false,
      "inputs": [
        {
          "indexed": true,
          "internalType": "address",
          "name": "owner",
          "type": "address"
        },
        {
          "indexed": true,
          "internalType": "address",
          "name": "operator",
          "type": "address"
        },
        {
          "indexed": false,
          "internalType": "bool",
          "name": "approved",
          "type": "bool"
        }
      ],
      "name": "ApprovalForAll",
      "type": "event"
    },
    {
      "anonymous": false,
      "inputs": [
        {
          "indexed": false,
          "internalType": "uint64",
          "name": "version",
          "type": "uint64"
        }
      ],
      "name": "Initialized",
      "type": "event"
    },
    {
      "anonymous": false,
      "inputs": [
        {
          "indexed": true,
          "internalType": "address",
          "name": "previousOwner",
          "type": "address"
        },
        {
          "indexed": true,
          "internalType": "address",
          "name": "newOwner",
          "type": "address"
        }
      ],
      "name": "OwnershipTransferred",
      "type": "event"
    },
    {
      "anonymous": false,
      "inputs": [
        {
          "indexed": false,
          "internalType": "address",
          "name": "account",
          "type": "address"
        }
      ],
      "name": "Paused",
      "type": "event"
    },
    {
      "anonymous": false,
      "inputs": [
        {
          "indexed": true,
          "internalType": "address",
          "name": "player",
          "type": "address"
        },
        {
          "indexed": false,
          "internalType": "uint256[3]",
          "name": "tokenIds",
          "type": "uint256[3]"
        }
      ],
      "name": "StarterTowersMinted",
      "type": "event"
    },
    {
      "anonymous": false,
      "inputs": [
        {
          "indexed": true,
          "internalType": "uint256",
          "name": "tokenId",
          "type": "uint256"
        },
        {
          "components": [
            {
              "internalType": "uint16",
              "name": "level",
              "type": "uint16"
            },
            {
              "internalType": "uint32",
              "name": "damage",
              "type": "uint32"
            },
            {
              "internalType": "uint32",
              "name": "range",
              "type": "uint32"
            },
            {
              "internalType": "uint32",
              "name": "fireRate",
              "type": "uint32"
            },
            {
              "internalType": "uint8",
              "name": "towerType",
              "type": "uint8"
            }
          ],
          "indexed": false,
          "internalType": "struct DengDefenseTowers.TowerStats",
          "name": "newStats",
          "type": "tuple"
        }
      ],
      "name": "TowerUpgraded",
      "type": "event"
    },
    {
      "anonymous": false,
      "inputs": [
        {
          "indexed": true,
          "internalType": "address",
          "name": "from",
          "type": "address"
        },
        {
          "indexed": true,
          "internalType": "address",
          "name": "to",
          "type": "address"
        },
        {
          "indexed": true,
          "internalType": "uint256",
          "name": "tokenId",
          "type": "uint256"
        }
      ],
      "name": "Transfer",
      "type": "event"
    },
    {
      "anonymous": false,
      "inputs": [
        {
          "indexed": false,
          "internalType": "string",
          "name": "newURI",
          "type": "string"
        }
      ],
      "name": "URIUpdated",
      "type": "event"
    },
    {
      "anonymous": false,
      "inputs": [
        {
          "indexed": false,
          "internalType": "address",
          "name": "account",
          "type": "address"
        }
      ],
      "name": "Unpaused",
      "type": "event"
    },
    {
      "anonymous": false,
      "inputs": [
        {
          "indexed": true,
          "internalType": "address",
          "name": "implementation",
          "type": "address"
        }
      ],
      "name": "Upgraded",
      "type": "event"
    },
    {
      "inputs": [],
      "name": "CONTRACT_VERSION",
      "outputs": [
        {
          "internalType": "string",
          "name": "",
          "type": "string"
        }
      ],
      "stateMutability": "view",
      "type": "function"
    },
    {
      "inputs": [],
      "name": "UPGRADE_INTERFACE_VERSION",
      "outputs": [
        {
          "internalType": "string",
          "name": "",
          "type": "string"
        }
      ],
      "stateMutability": "view",
      "type": "function"
    },
    {
      "inputs": [
        {
          "internalType": "uint256",
          "name": "tokenId",
          "type": "uint256"
        }
      ],
      "name": "adminBurn",
      "outputs": [],
      "stateMutability": "nonpayable",
      "type": "function"
    },
    {
      "inputs": [],
      "name": "adminLocked",
      "outputs": [
        {
          "internalType": "bool",
          "name": "",
          "type": "bool"
        }
      ],
      "stateMutability": "view",
      "type": "function"
    },
    {
      "inputs": [
        {
          "internalType": "uint256",
          "name": "tokenId",
          "type": "uint256"
        },
        {
          "components": [
            {
              "internalType": "uint16",
              "name": "level",
              "type": "uint16"
            },
            {
              "internalType": "uint32",
              "name": "damage",
              "type": "uint32"
            },
            {
              "internalType": "uint32",
              "name": "range",
              "type": "uint32"
            },
            {
              "internalType": "uint32",
              "name": "fireRate",
              "type": "uint32"
            },
            {
              "internalType": "uint8",
              "name": "towerType",
              "type": "uint8"
            }
          ],
          "internalType": "struct DengDefenseTowers.TowerStats",
          "name": "newStats",
          "type": "tuple"
        }
      ],
      "name": "adminUpgradeTower",
      "outputs": [],
      "stateMutability": "nonpayable",
      "type": "function"
    },
    {
      "inputs": [],
      "name": "apeToMooRate",
      "outputs": [
        {
          "internalType": "uint256",
          "name": "",
          "type": "uint256"
        }
      ],
      "stateMutability": "view",
      "type": "function"
    },
    {
      "inputs": [
        {
          "internalType": "address",
          "name": "",
          "type": "address"
        },
        {
          "internalType": "uint256",
          "name": "",
          "type": "uint256"
        }
      ],
      "name": "approve",
      "outputs": [],
      "stateMutability": "pure",
      "type": "function"
    },
    {
      "inputs": [],
      "name": "authorizedSigner",
      "outputs": [
        {
          "internalType": "address",
          "name": "",
          "type": "address"
        }
      ],
      "stateMutability": "view",
      "type": "function"
    },
    {
      "inputs": [
        {
          "internalType": "address",
          "name": "owner",
          "type": "address"
        }
      ],
      "name": "balanceOf",
      "outputs": [
        {
          "internalType": "uint256",
          "name": "",
          "type": "uint256"
        }
      ],
      "stateMutability": "view",
      "type": "function"
    },
    {
      "inputs": [],
      "name": "buyMoo",
      "outputs": [],
      "stateMutability": "payable",
      "type": "function"
    },
    {
      "inputs": [
        {
          "internalType": "uint8",
          "name": "towerType",
          "type": "uint8"
        }
      ],
      "name": "buyTower",
      "outputs": [
        {
          "internalType": "uint256",
          "name": "tokenId",
          "type": "uint256"
        }
      ],
      "stateMutability": "nonpayable",
      "type": "function"
    },
    {
      "inputs": [
        {
          "internalType": "uint256",
          "name": "amount",
          "type": "uint256"
        },
        {
          "internalType": "uint256",
          "name": "expiry",
          "type": "uint256"
        },
        {
          "internalType": "bytes",
          "name": "signature",
          "type": "bytes"
        }
      ],
      "name": "claim",
      "outputs": [],
      "stateMutability": "nonpayable",
      "type": "function"
    },
    {
      "inputs": [
        {
          "internalType": "address",
          "name": "",
          "type": "address"
        }
      ],
      "name": "claimNonces",
      "outputs": [
        {
          "internalType": "uint256",
          "name": "",
          "type": "uint256"
        }
      ],
      "stateMutability": "view",
      "type": "function"
    },
    {
      "inputs": [
        {
          "internalType": "uint256",
          "name": "",
          "type": "uint256"
        }
      ],
      "name": "getApproved",
      "outputs": [
        {
          "internalType": "address",
          "name": "",
          "type": "address"
        }
      ],
      "stateMutability": "pure",
      "type": "function"
    },
    {
      "inputs": [],
      "name": "getNextId",
      "outputs": [
        {
          "internalType": "uint256",
          "name": "",
          "type": "uint256"
        }
      ],
      "stateMutability": "view",
      "type": "function"
    },
    {
      "inputs": [
        {
          "internalType": "address",
          "name": "owner",
          "type": "address"
        }
      ],
      "name": "getOwnedTowers",
      "outputs": [
        {
          "internalType": "uint256[]",
          "name": "",
          "type": "uint256[]"
        }
      ],
      "stateMutability": "view",
      "type": "function"
    },
    {
      "inputs": [
        {
          "internalType": "uint256",
          "name": "tokenId",
          "type": "uint256"
        }
      ],
      "name": "getTower",
      "outputs": [
        {
          "components": [
            {
              "internalType": "uint16",
              "name": "level",
              "type": "uint16"
            },
            {
              "internalType": "uint32",
              "name": "damage",
              "type": "uint32"
            },
            {
              "internalType": "uint32",
              "name": "range",
              "type": "uint32"
            },
            {
              "internalType": "uint32",
              "name": "fireRate",
              "type": "uint32"
            },
            {
              "internalType": "uint8",
              "name": "towerType",
              "type": "uint8"
            }
          ],
          "internalType": "struct DengDefenseTowers.TowerStats",
          "name": "",
          "type": "tuple"
        }
      ],
      "stateMutability": "view",
      "type": "function"
    },
    {
      "inputs": [
        {
          "internalType": "string",
          "name": "name_",
          "type": "string"
        },
        {
          "internalType": "string",
          "name": "symbol_",
          "type": "string"
        },
        {
          "internalType": "string",
          "name": "baseURI_",
          "type": "string"
        }
      ],
      "name": "initialize",
      "outputs": [],
      "stateMutability": "nonpayable",
      "type": "function"
    },
    {
      "inputs": [
        {
          "internalType": "address",
          "name": "",
          "type": "address"
        },
        {
          "internalType": "address",
          "name": "",
          "type": "address"
        }
      ],
      "name": "isApprovedForAll",
      "outputs": [
        {
          "internalType": "bool",
          "name": "",
          "type": "bool"
        }
      ],
      "stateMutability": "pure",
      "type": "function"
    },
    {
      "inputs": [],
      "name": "lockAdminFunctionsForever",
      "outputs": [],
      "stateMutability": "nonpayable",
      "type": "function"
    },
    {
      "inputs": [
        {
          "internalType": "address",
          "name": "to",
          "type": "address"
        }
      ],
      "name": "mintStarterTowers",
      "outputs": [
        {
          "internalType": "uint256[3]",
          "name": "ids",
          "type": "uint256[3]"
        }
      ],
      "stateMutability": "nonpayable",
      "type": "function"
    },
    {
      "inputs": [],
      "name": "mooToken",
      "outputs": [
        {
          "internalType": "contract IMooToken",
          "name": "",
          "type": "address"
        }
      ],
      "stateMutability": "view",
      "type": "function"
    },
    {
      "inputs": [],
      "name": "name",
      "outputs": [
        {
          "internalType": "string",
          "name": "",
          "type": "string"
        }
      ],
      "stateMutability": "view",
      "type": "function"
    },
    {
      "inputs": [],
      "name": "owner",
      "outputs": [
        {
          "internalType": "address",
          "name": "",
          "type": "address"
        }
      ],
      "stateMutability": "view",
      "type": "function"
    },
    {
      "inputs": [
        {
          "internalType": "uint256",
          "name": "tokenId",
          "type": "uint256"
        }
      ],
      "name": "ownerOf",
      "outputs": [
        {
          "internalType": "address",
          "name": "",
          "type": "address"
        }
      ],
      "stateMutability": "view",
      "type": "function"
    },
    {
      "inputs": [],
      "name": "pause",
      "outputs": [],
      "stateMutability": "nonpayable",
      "type": "function"
    },
    {
      "inputs": [],
      "name": "paused",
      "outputs": [
        {
          "internalType": "bool",
          "name": "",
          "type": "bool"
        }
      ],
      "stateMutability": "view",
      "type": "function"
    },
    {
      "inputs": [],
      "name": "proxiableUUID",
      "outputs": [
        {
          "internalType": "bytes32",
          "name": "",
          "type": "bytes32"
        }
      ],
      "stateMutability": "view",
      "type": "function"
    },
    {
      "inputs": [
        {
          "internalType": "bytes32",
          "name": "ethSignedMessageHash",
          "type": "bytes32"
        },
        {
          "internalType": "bytes",
          "name": "sig",
          "type": "bytes"
        }
      ],
      "name": "recoverSigner",
      "outputs": [
        {
          "internalType": "address",
          "name": "",
          "type": "address"
        }
      ],
      "stateMutability": "pure",
      "type": "function"
    },
    {
      "inputs": [],
      "name": "renounceOwnership",
      "outputs": [],
      "stateMutability": "nonpayable",
      "type": "function"
    },
    {
      "inputs": [
        {
          "internalType": "address",
          "name": "nftContract",
          "type": "address"
        },
        {
          "internalType": "uint256",
          "name": "tokenId",
          "type": "uint256"
        }
      ],
      "name": "rescue721",
      "outputs": [],
      "stateMutability": "nonpayable",
      "type": "function"
    },
    {
      "inputs": [
        {
          "internalType": "address",
          "name": "token",
          "type": "address"
        }
      ],
      "name": "rescueTokens",
      "outputs": [],
      "stateMutability": "nonpayable",
      "type": "function"
    },
    {
      "inputs": [
        {
          "internalType": "address",
          "name": "from",
          "type": "address"
        },
        {
          "internalType": "address",
          "name": "to",
          "type": "address"
        },
        {
          "internalType": "uint256",
          "name": "tokenId",
          "type": "uint256"
        }
      ],
      "name": "safeTransferFrom",
      "outputs": [],
      "stateMutability": "nonpayable",
      "type": "function"
    },
    {
      "inputs": [
        {
          "internalType": "address",
          "name": "from",
          "type": "address"
        },
        {
          "internalType": "address",
          "name": "to",
          "type": "address"
        },
        {
          "internalType": "uint256",
          "name": "tokenId",
          "type": "uint256"
        },
        {
          "internalType": "bytes",
          "name": "data",
          "type": "bytes"
        }
      ],
      "name": "safeTransferFrom",
      "outputs": [],
      "stateMutability": "nonpayable",
      "type": "function"
    },
    {
      "inputs": [
        {
          "internalType": "address",
          "name": "",
          "type": "address"
        },
        {
          "internalType": "bool",
          "name": "",
          "type": "bool"
        }
      ],
      "name": "setApprovalForAll",
      "outputs": [],
      "stateMutability": "pure",
      "type": "function"
    },
    {
      "inputs": [
        {
          "internalType": "address",
          "name": "signer",
          "type": "address"
        }
      ],
      "name": "setAuthorizedSigner",
      "outputs": [],
      "stateMutability": "nonpayable",
      "type": "function"
    },
    {
      "inputs": [
        {
          "internalType": "string",
          "name": "newBase",
          "type": "string"
        }
      ],
      "name": "setBaseURI",
      "outputs": [],
      "stateMutability": "nonpayable",
      "type": "function"
    },
    {
      "inputs": [
        {
          "internalType": "uint256",
          "name": "rate",
          "type": "uint256"
        }
      ],
      "name": "setConversionRate",
      "outputs": [],
      "stateMutability": "nonpayable",
      "type": "function"
    },
    {
      "inputs": [
        {
          "internalType": "address",
          "name": "token",
          "type": "address"
        }
      ],
      "name": "setMooToken",
      "outputs": [],
      "stateMutability": "nonpayable",
      "type": "function"
    },
    {
      "inputs": [
        {
          "internalType": "uint8",
          "name": "towerType",
          "type": "uint8"
        },
        {
          "internalType": "uint256",
          "name": "price",
          "type": "uint256"
        }
      ],
      "name": "setTowerPrice",
      "outputs": [],
      "stateMutability": "nonpayable",
      "type": "function"
    },
    {
      "inputs": [
        {
          "internalType": "address",
          "name": "_treasury",
          "type": "address"
        }
      ],
      "name": "setTreasury",
      "outputs": [],
      "stateMutability": "nonpayable",
      "type": "function"
    },
    {
      "inputs": [
        {
          "internalType": "address",
          "name": "",
          "type": "address"
        }
      ],
      "name": "starterGranted",
      "outputs": [
        {
          "internalType": "bool",
          "name": "",
          "type": "bool"
        }
      ],
      "stateMutability": "view",
      "type": "function"
    },
    {
      "inputs": [
        {
          "internalType": "bytes4",
          "name": "interfaceId",
          "type": "bytes4"
        }
      ],
      "name": "supportsInterface",
      "outputs": [
        {
          "internalType": "bool",
          "name": "",
          "type": "bool"
        }
      ],
      "stateMutability": "view",
      "type": "function"
    },
    {
      "inputs": [],
      "name": "symbol",
      "outputs": [
        {
          "internalType": "string",
          "name": "",
          "type": "string"
        }
      ],
      "stateMutability": "view",
      "type": "function"
    },
    {
      "inputs": [
        {
          "internalType": "uint256",
          "name": "tokenId",
          "type": "uint256"
        }
      ],
      "name": "tokenURI",
      "outputs": [
        {
          "internalType": "string",
          "name": "",
          "type": "string"
        }
      ],
      "stateMutability": "view",
      "type": "function"
    },
    {
      "inputs": [
        {
          "internalType": "uint8",
          "name": "",
          "type": "uint8"
        }
      ],
      "name": "towerPrices",
      "outputs": [
        {
          "internalType": "uint256",
          "name": "",
          "type": "uint256"
        }
      ],
      "stateMutability": "view",
      "type": "function"
    },
    {
      "inputs": [
        {
          "internalType": "address",
          "name": "from",
          "type": "address"
        },
        {
          "internalType": "address",
          "name": "to",
          "type": "address"
        },
        {
          "internalType": "uint256",
          "name": "tokenId",
          "type": "uint256"
        }
      ],
      "name": "transferFrom",
      "outputs": [],
      "stateMutability": "nonpayable",
      "type": "function"
    },
    {
      "inputs": [
        {
          "internalType": "address",
          "name": "newOwner",
          "type": "address"
        }
      ],
      "name": "transferOwnership",
      "outputs": [],
      "stateMutability": "nonpayable",
      "type": "function"
    },
    {
      "inputs": [],
      "name": "treasury",
      "outputs": [
        {
          "internalType": "address",
          "name": "",
          "type": "address"
        }
      ],
      "stateMutability": "view",
      "type": "function"
    },
    {
      "inputs": [],
      "name": "unpause",
      "outputs": [],
      "stateMutability": "nonpayable",
      "type": "function"
    },
    {
      "inputs": [
        {
          "internalType": "address",
          "name": "newImplementation",
          "type": "address"
        },
        {
          "internalType": "bytes",
          "name": "data",
          "type": "bytes"
        }
      ],
      "name": "upgradeToAndCall",
      "outputs": [],
      "stateMutability": "payable",
      "type": "function"
    },
    {
      "inputs": [],
      "name": "version",
      "outputs": [
        {
          "internalType": "string",
          "name": "",
          "type": "string"
        }
      ],
      "stateMutability": "pure",
      "type": "function"
    },
    {
      "inputs": [],
      "name": "withdraw",
      "outputs": [],
      "stateMutability": "nonpayable",
      "type": "function"
    }
  ],
  "bytecode": "0x60a060405230608052348015601357600080fd5b50608051613b1c61003d600039600081816120370152818161206001526121980152613b1c6000f3fe6080604052600436106102c95760003560e01c8063715018a61161017b578063a6487c53116100d7578063d279b0ca11610085578063d279b0ca146108d7578063d2e80494146108f7578063db6c7d3e14610917578063e985e9c514610944578063f0f4426014610967578063f2fde38b14610987578063ff06aa68146109a757600080fd5b8063a6487c53146107f1578063ad3cb1cc14610811578063b88d4fde14610842578063badb97ff14610862578063bc96832614610882578063c771909c14610897578063c87b56dd146108b757600080fd5b806395d89b411161013457806395d89b411461071b57806397aba7f9146107305780639e1efa5d14610750578063a22cb46514610770578063a381db0b1461078b578063a41a9f0a146107a1578063a50f1b82146107d157600080fd5b8063715018a6146106825780637ab3c8d9146106975780638456cb59146106c45780638800e0cf146106d95780638c250213146106fe5780638da5cb5b1461070657600080fd5b80633f4ba83a1161022a57806354fd4d50116101e357806354fd4d501461059e57806355f804b3146105cd5780635c975abb146105ed5780635eddd1571461060257806361d027b3146106225780636352211e1461064257806370a082311461066257600080fd5b80633f4ba83a1461049957806342842e0e146104ae578063455268d1146104ce5780634b6280e5146105495780634f1ef2861461057657806352d1902d1461058957600080fd5b80632222790e116102875780632222790e146103aa57806323b872dd146103ca5780632a869889146103ea578063367fe19b1461041857806338b903331461043857806338d70a691461046a5780633ccfd60b1461048457600080fd5b8062ae3bf8146102ce57806301ffc9a7146102f057806306fdde0314610325578063080fc11014610347578063081812fc1461035c578063095ea7b31461038a575b600080fd5b3480156102da57600080fd5b506102ee6102e9366004612f87565b6109d4565b005b3480156102fc57600080fd5b5061031061030b366004612fb8565b610b00565b60405190151581526020015b60405180910390f35b34801561033157600080fd5b5061033a610b11565b60405161031c9190613025565b34801561035357600080fd5b506102ee610bb2565b34801561036857600080fd5b5061037d610377366004613038565b50600090565b60405161031c9190613051565b34801561039657600080fd5b506102ee6103a5366004613065565b610c15565b3480156103b657600080fd5b506102ee6103c536600461309e565b610c2e565b3480156103d657600080fd5b506102ee6103e53660046130bc565b610c94565b3480156103f657600080fd5b5061040a6104053660046130f9565b610d1f565b60405190815260200161031c565b34801561042457600080fd5b506102ee610433366004613065565b610e25565b34801561044457600080fd5b5061033a60405180604001604052806006815260200165076322e302e360d41b81525081565b34801561047657600080fd5b506031546103109060ff1681565b34801561049057600080fd5b506102ee610ee3565b3480156104a557600080fd5b506102ee610f61565b3480156104ba57600080fd5b506102ee6104c93660046130bc565b610f71565b3480156104da57600080fd5b506104ee6104e9366004613038565b610f91565b60405161031c9190600060a08201905061ffff835116825263ffffffff602084015116602083015263ffffffff604084015116604083015263ffffffff606084015116606083015260ff608084015116608083015292915050565b34801561055557600080fd5b5061040a6105643660046130f9565b60366020526000908152604090205481565b6102ee6105843660046131c0565b611050565b34801561059557600080fd5b5061040a61106b565b3480156105aa57600080fd5b50604080518082019091526006815265076352e302e360d41b602082015261033a565b3480156105d957600080fd5b506102ee6105e8366004613255565b611088565b3480156105f957600080fd5b506103106110db565b34801561060e57600080fd5b506102ee61061d366004613296565b6110ea565b34801561062e57600080fd5b5060335461037d906001600160a01b031681565b34801561064e57600080fd5b5061037d61065d366004613038565b611308565b34801561066e57600080fd5b5061040a61067d366004612f87565b611313565b34801561068e57600080fd5b506102ee61136b565b3480156106a357600080fd5b506106b76106b2366004612f87565b61137d565b60405161031c91906132e8565b3480156106d057600080fd5b506102ee611467565b3480156106e557600080fd5b5060315461037d9061010090046001600160a01b031681565b6102ee611477565b34801561071257600080fd5b5061037d61162f565b34801561072757600080fd5b5061033a61165d565b34801561073c57600080fd5b5061037d61074b366004613319565b61167a565b34801561075c57600080fd5b506102ee61076b366004612f87565b6116f9565b34801561077c57600080fd5b506102ee6103a5366004613357565b34801561079757600080fd5b5061040a60325481565b3480156107ad57600080fd5b506103106107bc366004612f87565b60016020526000908152604090205460ff1681565b3480156107dd57600080fd5b506102ee6107ec36600461338e565b61174c565b3480156107fd57600080fd5b506102ee61080c3660046133c6565b611821565b34801561081d57600080fd5b5061033a604051806040016040528060058152602001640352e302e360dc1b81525081565b34801561084e57600080fd5b506102ee61085d366004613457565b611920565b34801561086e57600080fd5b506102ee61087d366004613038565b611938565b34801561088e57600080fd5b5060025461040a565b3480156108a357600080fd5b5060345461037d906001600160a01b031681565b3480156108c357600080fd5b5061033a6108d2366004613038565b61196c565b3480156108e357600080fd5b506102ee6108f2366004612f87565b611a02565b34801561090357600080fd5b506102ee610912366004613038565b611a4f565b34801561092357600080fd5b5061040a610932366004612f87565b60356020526000908152604090205481565b34801561095057600080fd5b5061031061095f3660046134be565b600092915050565b34801561097357600080fd5b506102ee610982366004612f87565b611a7f565b34801561099357600080fd5b506102ee6109a2366004612f87565b611acc565b3480156109b357600080fd5b506109c76109c2366004612f87565b611b07565b60405161031c91906134f1565b6109dc611beb565b6109e4611c1d565b60315460ff1615610a105760405162461bcd60e51b8152600401610a0790613534565b60405180910390fd5b806001600160a01b031663a9059cbb610a2761162f565b6040516370a0823160e01b81526001600160a01b038516906370a0823190610a53903090600401613051565b602060405180830381865afa158015610a70573d6000803e3d6000fd5b505050506040513d601f19601f82011682018060405250810190610a94919061356b565b6040518363ffffffff1660e01b8152600401610ab1929190613584565b6020604051808303816000875af1158015610ad0573d6000803e3d6000fd5b505050506040513d601f19601f82011682018060405250810190610af4919061359d565b50610afd611c67565b50565b6000610b0b82611c8d565b92915050565b60606000610b1d611cdd565b9050806000018054610b2e906135ba565b80601f0160208091040260200160405190810160405280929190818152602001828054610b5a906135ba565b8015610ba75780601f10610b7c57610100808354040283529160200191610ba7565b820191906000526020600020905b815481529060010190602001808311610b8a57829003601f168201915b505050505091505090565b610bba611beb565b60315460ff1615610bdd5760405162461bcd60e51b8152600401610a0790613534565b6031805460ff191660011790556040517fa28ab6d6853152b104da0d6575c49d6d5f07dde463e8698f9d9bb14cc70276b390600090a1565b60405163a4420a9560e01b815260040160405180910390fd5b610c36611beb565b60315460ff1615610c595760405162461bcd60e51b8152600401610a0790613534565b8160038160ff1610610c7d5760405162461bcd60e51b8152600401610a07906135f4565b5060ff909116600090815260366020526040902055565b6001600160a01b038216610cbe576000604051633250574960e11b8152600401610a079190613051565b6000610ccb838333611d01565b9050836001600160a01b0316816001600160a01b031614610d19576040516364283d7b60e01b81526001600160a01b0380861660048301526024820184905282166044820152606401610a07565b50505050565b6000610d29611e0a565b8160038160ff1610610d4d5760405162461bcd60e51b8152600401610a07906135f4565b60ff831660009081526036602052604090205480610d9d5760405162461bcd60e51b815260206004820152600d60248201526c141c9a58d9481b9bdd081cd95d609a1b6044820152606401610a07565b60315460405163079cc67960e41b81526101009091046001600160a01b0316906379cc679090610dd39033908590600401613584565b600060405180830381600087803b158015610ded57600080fd5b505af1158015610e01573d6000803e3d6000fd5b505050506000610e1085611e30565b9050610e1c3382611ee6565b95945050505050565b610e2d611beb565b610e35611c1d565b60315460ff1615610e585760405162461bcd60e51b8152600401610a0790613534565b816001600160a01b03166323b872dd30610e7061162f565b6040516001600160e01b031960e085901b1681526001600160a01b0392831660048201529116602482015260448101849052606401600060405180830381600087803b158015610ebf57600080fd5b505af1158015610ed3573d6000803e3d6000fd5b50505050610edf611c67565b5050565b610eeb611beb565b610ef3611c1d565b60315460ff1615610f165760405162461bcd60e51b8152600401610a0790613534565b610f1e61162f565b6001600160a01b03166108fc479081150290604051600060405180830381858888f19350505050158015610f56573d6000803e3d6000fd5b50610f5f611c67565b565b610f69611beb565b610f5f611fac565b610f8c83838360405180602001604052806000815250611920565b505050565b610f99612f1f565b6000610fa483612003565b6001600160a01b031603610fe75760405162461bcd60e51b815260206004820152600a602482015269139bdd081b5a5b9d195960b21b6044820152606401610a07565b5060009081526020818152604091829020825160a081018452905461ffff8116825262010000810463ffffffff90811693830193909352600160301b8104831693820193909352600160501b83049091166060820152600160701b90910460ff16608082015290565b61105861202c565b611061826120d1565b610edf82826120d9565b600061107561218d565b50600080516020613ac783398151915290565b611090611beb565b600361109d82848361367c565b507fe3afa94108b5f5e82e5f6e539d161ff4b5402a85f696c67b9768ec3ae54ce36682826040516110cf929190613735565b60405180910390a15050565b60006110e56121d6565b905090565b6110f2611e0a565b824211156111325760405162461bcd60e51b815260206004820152600d60248201526c10db185a5b48195e1c1a5c9959609a1b6044820152606401610a07565b33600081815260356020908152604080832054815160609590951b6bffffffffffffffffffffffff191685840152603485018990526054850188905260748086018290528251808703909101815260948601909252815191909201207f19457468657265756d205369676e6564204d6573736167653a0a33320000000060b485015260d08401819052909290919060f001604051602081830303815290604052805190602001209050600061121d8287878080601f01602080910402602001604051908101604052809392919081815260200183838082843760009201919091525061167a92505050565b6034549091506001600160a01b038083169116146112715760405162461bcd60e51b8152602060048201526011602482015270496e76616c6964207369676e617475726560781b6044820152606401610a07565b33600090815260356020526040812080546001929061129190849061377a565b90915550506031546040516340c10f1960e01b81526101009091046001600160a01b0316906340c10f19906112cc9033908c90600401613584565b600060405180830381600087803b1580156112e657600080fd5b505af11580156112fa573d6000803e3d6000fd5b505050505050505050505050565b6000610b0b826121eb565b60008061131e611cdd565b90506001600160a01b03831661134a5760006040516322718ad960e21b8152600401610a079190613051565b6001600160a01b039092166000908152600390920160205250604090205490565b611373611beb565b610f5f6000612223565b611385612f4d565b61138d611beb565b611395611e0a565b61139e82611313565b156113e15760405162461bcd60e51b8152602060048201526013602482015272416c7265616479206f776e7320746f7765727360681b6044820152606401610a07565b6113f4826113ef6000611e30565b611ee6565b8152611404826113ef6001611e30565b6020820152611417826113ef6002611e30565b81600260200201526040516001600160a01b038316907f49989188f2801bf0efd3a47273c7c521d4642bbcb38833f098192c7c6821f40a9061145a9084906132e8565b60405180910390a2919050565b61146f611beb565b610f5f612294565b61147f611e0a565b600034116114bd5760405162461bcd60e51b815260206004820152600b60248201526a139bc8105411481cd95b9d60aa1b6044820152606401610a07565b6000603254116115095760405162461bcd60e51b815260206004820152601760248201527610dbdb9d995c9cda5bdb881c985d19481b9bdd081cd95d604a1b6044820152606401610a07565b60006032543461151991906137a3565b6031546040516340c10f1960e01b815291925061010090046001600160a01b0316906340c10f19906115519033908590600401613584565b600060405180830381600087803b15801561156b57600080fd5b505af115801561157f573d6000803e3d6000fd5b50506033546001600160a01b0316159150610afd9050576033546040516000916001600160a01b03169034908381818185875af1925050503d80600081146115e3576040519150601f19603f3d011682016040523d82523d6000602084013e6115e8565b606091505b5050905080610edf5760405162461bcd60e51b8152602060048201526013602482015272105411481d1c985b9cd9995c8819985a5b1959606a1b6044820152606401610a07565b7f9016d09d72d40fdae2fd8ceac6b6234c7706214fd39c1cd1e609a0528c199300546001600160a01b031690565b60606000611669611cdd565b9050806001018054610b2e906135ba565b600080600080611689856122db565b6040805160008152602081018083528b905260ff8316918101919091526060810184905260808101839052929550909350915060019060a0016020604051602081039080840390855afa1580156116e4573d6000803e3d6000fd5b5050604051601f190151979650505050505050565b611701611beb565b60315460ff16156117245760405162461bcd60e51b8152600401610a0790613534565b603180546001600160a01b0390921661010002610100600160a81b0319909216919091179055565b611754611beb565b60315460ff16156117775760405162461bcd60e51b8152600401610a0790613534565b600061178283612003565b6001600160a01b0316036117c85760405162461bcd60e51b815260206004820152600d60248201526c24b73b30b634b2103a37b5b2b760991b6044820152606401610a07565b600082815260208190526040902081906117e282826137e9565b905050817fb5ca2192f49d1752c816614755671aa16fa2cf9523d81ecee06f175bce86eb588260405161181591906138c2565b60405180910390a25050565b600061182b61234a565b805490915060ff600160401b82041615906001600160401b03166000811580156118525750825b90506000826001600160401b0316600114801561186e5750303b155b90508115801561187c575080155b1561189a5760405163f92ee8a960e01b815260040160405180910390fd5b845467ffffffffffffffff1916600117855583156118c457845460ff60401b1916600160401b1785555b6118cf888888612373565b831561191657845460ff60401b19168555604051600181527fc7f505b2f371ae2175ee4913f4499e1f2633a7b5936321eed1cdaeb6115181d2906020015b60405180910390a15b5050505050505050565b61192b848484610c94565b610d193385858585612421565b611940611beb565b60315460ff16156119635760405162461bcd60e51b8152600401610a0790613534565b610afd8161253a565b6060600061197983612003565b6001600160a01b0316036119ca5760405162461bcd60e51b8152602060048201526018602482015277115490cdcc8c4e881a5b9d985b1a59081d1bdad95b88125160421b6044820152606401610a07565b6119d2612575565b6119db83612607565b6040516020016119ec929190613940565b6040516020818303038152906040529050919050565b611a0a611beb565b60315460ff1615611a2d5760405162461bcd60e51b8152600401610a0790613534565b603480546001600160a01b0319166001600160a01b0392909216919091179055565b611a57611beb565b60315460ff1615611a7a5760405162461bcd60e51b8152600401610a0790613534565b603255565b611a87611beb565b60315460ff1615611aaa5760405162461bcd60e51b8152600401610a0790613534565b603380546001600160a01b0319166001600160a01b0392909216919091179055565b611ad4611beb565b6001600160a01b038116611afe576000604051631e4fbdf760e01b8152600401610a079190613051565b610afd81612223565b60606000611b1483611313565b90506000816001600160401b03811115611b3057611b30613116565b604051908082528060200260200182016040528015611b59578160200160208202803683370190505b5090506000611b6760025490565b9050600060015b8281108015611b7c57508482105b15611be057866001600160a01b0316611b9482612003565b6001600160a01b031603611bce5780848381518110611bb557611bb561378d565b602090810291909101015281611bca8161397f565b9250505b80611bd88161397f565b915050611b6e565b509195945050505050565b33611bf461162f565b6001600160a01b031614610f5f573360405163118cdaa760e01b8152600401610a079190613051565b7f9b779b17422d0df92223018b32b4d1fa46e071723d6817e2486d003becc55f00805460011901611c6157604051633ee5aeb560e01b815260040160405180910390fd5b60029055565b60017f9b779b17422d0df92223018b32b4d1fa46e071723d6817e2486d003becc55f0055565b60006001600160e01b031982166380ac58cd60e01b1480611cbe57506001600160e01b03198216635b5e139f60e01b145b80610b0b57506301ffc9a760e01b6001600160e01b0319831614610b0b565b7f80bb2b638cc20bc4d0a60d66940f3ab4a00c1d7b313497ca82fb0b4ab007930090565b600080611d0c611cdd565b90506000611d1985612003565b90506001600160a01b03841615611d3557611d35818587612699565b6001600160a01b03811615611d7557611d526000866000806126ef565b6001600160a01b0381166000908152600383016020526040902080546000190190555b6001600160a01b03861615611da6576001600160a01b03861660009081526003830160205260409020805460010190555b600085815260028301602052604080822080546001600160a01b0319166001600160a01b038a811691821790925591518893918516917fddf252ad1be2c89b69c2b068fc378daa952ba7f163c4a11628f55a4df523b3ef91a49150505b9392505050565b611e126110db565b15610f5f5760405163d93c066560e01b815260040160405180910390fd5b611e38612f1f565b8160ff16600003611e745750506040805160a0808201835260018252600a6020830152918101919091526103e860608201526000608082015290565b8160ff16600103611eb45750506040805160a08101825260018082526019602083015261012c928201929092526109606060820152608081019190915290565b50506040805160a0810182526001815260046020820152608c9181019190915261070860608201526002608082015290565b6002805460009182611ef78361397f565b919050559050611f0783826127f0565b60008181526020818152604091829020845181549286015193860151606087015160809097015160ff16600160701b0260ff60701b1963ffffffff988916600160501b0263ffffffff60501b19938a16600160301b02939093166dffffffffffffffff0000000000001999909716620100000265ffffffffffff1990961661ffff90941693909317949094179690961693909317949094179190911617909155919050565b611fb461280a565b6000611fbe61282f565b805460ff1916815590507f5db9ee0a495bf2e6ff9c91a7834c1ba4fdd244a5e8aa4e537bd38aeae4b073aa335b604051611ff89190613051565b60405180910390a150565b60008061200e611cdd565b6000938452600201602052505060409020546001600160a01b031690565b306001600160a01b037f00000000000000000000000000000000000000000000000000000000000000001614806120b357507f00000000000000000000000000000000000000000000000000000000000000006001600160a01b03166120a7600080516020613ac7833981519152546001600160a01b031690565b6001600160a01b031614155b15610f5f5760405163703e46dd60e11b815260040160405180910390fd5b610afd611beb565b816001600160a01b03166352d1902d6040518163ffffffff1660e01b8152600401602060405180830381865afa925050508015612133575060408051601f3d908101601f191682019092526121309181019061356b565b60015b6121525781604051634c9c8ce360e01b8152600401610a079190613051565b600080516020613ac7833981519152811461218357604051632a87526960e21b815260048101829052602401610a07565b610f8c8383612853565b306001600160a01b037f00000000000000000000000000000000000000000000000000000000000000001614610f5f5760405163703e46dd60e11b815260040160405180910390fd5b6000806121e161282f565b5460ff1692915050565b6000806121f783612003565b90506001600160a01b038116610b0b57604051637e27328960e01b815260048101849052602401610a07565b7f9016d09d72d40fdae2fd8ceac6b6234c7706214fd39c1cd1e609a0528c19930080546001600160a01b031981166001600160a01b03848116918217845560405192169182907f8be0079c531659141344cd1fd0a4f28419497f9722a3daafe3b4186f6b6457e090600090a3505050565b61229c611e0a565b60006122a661282f565b805460ff1916600117815590507f62e78cea01bee320cd4e420270b5ea74000d11b0c9f74754ebdbfc544b05a258611feb3390565b6000806000835160411461232c5760405162461bcd60e51b8152602060048201526018602482015277092dcecc2d8d2c840e6d2cedcc2e8eae4ca40d8cadccee8d60431b6044820152606401610a07565b50505060208101516040820151606090920151909260009190911a90565b6000807ff0c57e16840df040f15088dc2f81fe391c3923bec73e23a9662efc9c229c6a00610b0b565b600061237d61234a565b805490915060ff600160401b82041615906001600160401b03166000811580156123a45750825b90506000826001600160401b031660011480156123c05750303b155b9050811580156123ce575080155b156123ec5760405163f92ee8a960e01b815260040160405180910390fd5b845467ffffffffffffffff19166001178555831561241657845460ff60401b1916600160401b1785555b6118cf8888886128a9565b6001600160a01b0383163b1561253357604051630a85bd0160e11b81526001600160a01b0384169063150b7a0290612463908890889087908790600401613998565b6020604051808303816000875af192505050801561249e575060408051601f3d908101601f1916820190925261249b918101906139d5565b60015b6124fe573d8080156124cc576040519150601f19603f3d011682016040523d82523d6000602084013e6124d1565b606091505b5080516000036124f65783604051633250574960e11b8152600401610a079190613051565b805160208201fd5b6001600160e01b03198116630a85bd0160e11b146125315783604051633250574960e11b8152600401610a079190613051565b505b5050505050565b60006125496000836000611d01565b90506001600160a01b038116610edf57604051637e27328960e01b815260048101839052602401610a07565b606060038054612584906135ba565b80601f01602080910402602001604051908101604052809291908181526020018280546125b0906135ba565b80156125fd5780601f106125d2576101008083540402835291602001916125fd565b820191906000526020600020905b8154815290600101906020018083116125e057829003601f168201915b5050505050905090565b6060600061261483612957565b60010190506000816001600160401b0381111561263357612633613116565b6040519080825280601f01601f19166020018201604052801561265d576020820181803683370190505b5090508181016020015b600019016f181899199a1a9b1b9c1cb0b131b232b360811b600a86061a8153600a850494508461266757509392505050565b6126a4838383612a2f565b610f8c576001600160a01b0383166126d257604051637e27328960e01b815260048101829052602401610a07565b818160405163177e802f60e01b8152600401610a07929190613584565b60006126f9611cdd565b9050818061270f57506001600160a01b03831615155b156127bf57600061271f856121eb565b90506001600160a01b0384161580159061274b5750836001600160a01b0316816001600160a01b031614155b8015612755575060015b15612775578360405163a9fbf51f60e01b8152600401610a079190613051565b82156127bd5784866001600160a01b0316826001600160a01b03167f8c5be1e5ebec7d5bd14f71427d1e84f3dd0314c0f7b2291e5b200ac8c7c3b92560405160405180910390a45b505b600093845260040160205250506040902080546001600160a01b0319166001600160a01b0392909216919091179055565b610edf828260405180602001604052806000815250612a8e565b6128126110db565b610f5f57604051638dfc202b60e01b815260040160405180910390fd5b7fcd5ed15c6e187e77e9aee88184c21f4f2182ab5827cb3b7e07fbedcd63f0330090565b61285c82612aa6565b6040516001600160a01b038316907fbc7cd75a20ee27fd9adebab32041f755214dbc6bffa90cc0225b39da2e5c2d3b90600090a28051156128a157610f8c8282612b02565b610edf612b6f565b60006128b361234a565b805490915060ff600160401b82041615906001600160401b03166000811580156128da5750825b90506000826001600160401b031660011480156128f65750303b155b905081158015612904575080155b156129225760405163f92ee8a960e01b815260040160405180910390fd5b845467ffffffffffffffff19166001178555831561294c57845460ff60401b1916600160401b1785555b6118cf888888612b8e565b60008072184f03e93ff9f4daa797ed6e38ed64bf6a1f0160401b83106129965772184f03e93ff9f4daa797ed6e38ed64bf6a1f0160401b830492506040015b6d04ee2d6d415b85acef810000000083106129c2576d04ee2d6d415b85acef8100000000830492506020015b662386f26fc1000083106129e057662386f26fc10000830492506010015b6305f5e10083106129f8576305f5e100830492506008015b6127108310612a0c57612710830492506004015b60648310612a1e576064830492506002015b600a8310610b0b5760010192915050565b60006001600160a01b03831615801590612a865750826001600160a01b0316846001600160a01b03161480612a62575060005b80612a865750826001600160a01b0316612a7b83612c4c565b6001600160a01b0316145b949350505050565b612a988383612c75565b610f8c336000858585612421565b806001600160a01b03163b600003612ad35780604051634c9c8ce360e01b8152600401610a079190613051565b600080516020613ac783398151915280546001600160a01b0319166001600160a01b0392909216919091179055565b6060600080846001600160a01b031684604051612b1f91906139f2565b600060405180830381855af49150503d8060008114612b5a576040519150601f19603f3d011682016040523d82523d6000602084013e612b5f565b606091505b5091509150610e1c858383612cda565b3415610f5f5760405163b398979f60e01b815260040160405180910390fd5b6000612b9861234a565b805490915060ff600160401b82041615906001600160401b0316600081158015612bbf5750825b90506000826001600160401b03166001148015612bdb5750303b155b905081158015612be9575080155b15612c075760405163f92ee8a960e01b815260040160405180910390fd5b845467ffffffffffffffff191660011785558315612c3157845460ff60401b1916600160401b1785555b612c3c888888612d2d565b612c44612e3f565b6118cf612e4f565b600080612c57611cdd565b6000938452600401602052505060409020546001600160a01b031690565b6001600160a01b038216612c9f576000604051633250574960e11b8152600401610a079190613051565b6000612cad83836000611d01565b90506001600160a01b03811615610f8c5760006040516339e3563760e11b8152600401610a079190613051565b606082612cef57612cea82612e57565b611e03565b8151158015612d0657506001600160a01b0384163b155b15612d265783604051639996b31560e01b8152600401610a079190613051565b5080611e03565b6000612d3761234a565b805490915060ff600160401b82041615906001600160401b0316600081158015612d5e5750825b90506000826001600160401b03166001148015612d7a5750303b155b905081158015612d88575080155b15612da65760405163f92ee8a960e01b815260040160405180910390fd5b845467ffffffffffffffff191660011785558315612dd057845460ff60401b1916600160401b1785555b612dda8888612e7f565b612de333612e91565b612deb612e4f565b6003612df78782613a0e565b506001600255831561191657845460ff60401b19168555604051600181527fc7f505b2f371ae2175ee4913f4499e1f2633a7b5936321eed1cdaeb6115181d29060200161190d565b612e47612ea2565b610f5f612ec7565b610f5f612ea2565b805115612e6657805160208201fd5b60405163d6bda27560e01b815260040160405180910390fd5b612e87612ea2565b610edf8282612ecf565b612e99612ea2565b610afd81612efd565b612eaa612f05565b610f5f57604051631afcd79f60e31b815260040160405180910390fd5b611c67612ea2565b612ed7612ea2565b6000612ee1611cdd565b905080612eee8482613a0e565b5060018101610d198382613a0e565b611ad4612ea2565b6000612f0f61234a565b54600160401b900460ff16919050565b6040805160a08101825260008082526020820181905291810182905260608101829052608081019190915290565b60405180606001604052806003906020820280368337509192915050565b80356001600160a01b0381168114612f8257600080fd5b919050565b600060208284031215612f9957600080fd5b611e0382612f6b565b6001600160e01b031981168114610afd57600080fd5b600060208284031215612fca57600080fd5b8135611e0381612fa2565b60005b83811015612ff0578181015183820152602001612fd8565b50506000910152565b60008151808452613011816020860160208601612fd5565b601f01601f19169290920160200192915050565b602081526000611e036020830184612ff9565b60006020828403121561304a57600080fd5b5035919050565b6001600160a01b0391909116815260200190565b6000806040838503121561307857600080fd5b61308183612f6b565b946020939093013593505050565b60ff81168114610afd57600080fd5b600080604083850312156130b157600080fd5b82356130818161308f565b6000806000606084860312156130d157600080fd5b6130da84612f6b565b92506130e860208501612f6b565b929592945050506040919091013590565b60006020828403121561310b57600080fd5b8135611e038161308f565b634e487b7160e01b600052604160045260246000fd5b600082601f83011261313d57600080fd5b8135602083016000806001600160401b0384111561315d5761315d613116565b50604051601f19601f85018116603f011681018181106001600160401b038211171561318b5761318b613116565b6040528381529050808284018710156131a357600080fd5b838360208301376000602085830101528094505050505092915050565b600080604083850312156131d357600080fd5b6131dc83612f6b565b915060208301356001600160401b038111156131f757600080fd5b6132038582860161312c565b9150509250929050565b60008083601f84011261321f57600080fd5b5081356001600160401b0381111561323657600080fd5b60208301915083602082850101111561324e57600080fd5b9250929050565b6000806020838503121561326857600080fd5b82356001600160401b0381111561327e57600080fd5b61328a8582860161320d565b90969095509350505050565b600080600080606085870312156132ac57600080fd5b843593506020850135925060408501356001600160401b038111156132d057600080fd5b6132dc8782880161320d565b95989497509550505050565b60608101818360005b60038110156133105781518352602092830192909101906001016132f1565b50505092915050565b6000806040838503121561332c57600080fd5b8235915060208301356001600160401b038111156131f757600080fd5b8015158114610afd57600080fd5b6000806040838503121561336a57600080fd5b61337383612f6b565b9150602083013561338381613349565b809150509250929050565b60008082840360c08112156133a257600080fd5b8335925060a0601f19820112156133b857600080fd5b506020830190509250929050565b6000806000606084860312156133db57600080fd5b83356001600160401b038111156133f157600080fd5b6133fd8682870161312c565b93505060208401356001600160401b0381111561341957600080fd5b6134258682870161312c565b92505060408401356001600160401b0381111561344157600080fd5b61344d8682870161312c565b9150509250925092565b6000806000806080858703121561346d57600080fd5b61347685612f6b565b935061348460208601612f6b565b92506040850135915060608501356001600160401b038111156134a657600080fd5b6134b28782880161312c565b91505092959194509250565b600080604083850312156134d157600080fd5b6134da83612f6b565b91506134e860208401612f6b565b90509250929050565b602080825282518282018190526000918401906040840190835b8181101561352957835183526020938401939092019160010161350b565b509095945050505050565b6020808252601e908201527f41646d696e2066756e6374696f6e73206c6f636b656420666f72657665720000604082015260600190565b60006020828403121561357d57600080fd5b5051919050565b6001600160a01b03929092168252602082015260400190565b6000602082840312156135af57600080fd5b8151611e0381613349565b600181811c908216806135ce57607f821691505b6020821081036135ee57634e487b7160e01b600052602260045260246000fd5b50919050565b602080825260129082015271496e76616c696420746f776572207479706560701b604082015260600190565b601f821115610f8c57806000526020600020601f840160051c810160208510156136475750805b601f840160051c820191505b818110156125335760008155600101613653565b600019600383901b1c191660019190911b1790565b6001600160401b0383111561369357613693613116565b6136a7836136a183546135ba565b83613620565b6000601f8411600181146136d557600085156136c35750838201355b6136cd8682613667565b845550612533565b600083815260209020601f19861690835b8281101561370657868501358255602094850194600190920191016136e6565b50868210156137235760001960f88860031b161c19848701351681555b505060018560011b0183555050505050565b60208152816020820152818360408301376000818301604090810191909152601f909201601f19160101919050565b634e487b7160e01b600052601160045260246000fd5b80820180821115610b0b57610b0b613764565b634e487b7160e01b600052603260045260246000fd5b8082028115828204841417610b0b57610b0b613764565b61ffff81168114610afd57600080fd5b63ffffffff81168114610afd57600080fd5b60008135610b0b8161308f565b81356137f4816137ba565b61ffff8116905081548161ffff1982161783556020840135613815816137ca565b65ffffffff00008160101b168365ffffffffffff198416171784555050506040820135613841816137ca565b815469ffffffff000000000000191660309190911b69ffffffff0000000000001617815560006060830135613875816137ca565b825463ffffffff60501b1916605082901b63ffffffff60501b16178355905050610edf6138a4608084016137dc565b82805460ff60701b191660709290921b60ff60701b16919091179055565b60a0810182356138d1816137ba565b61ffff16825260208301356138e5816137ca565b63ffffffff16602083015260408301356138fe816137ca565b63ffffffff1660408301526060830135613917816137ca565b63ffffffff16606083015260808301356139308161308f565b60ff811660808401525092915050565b60008351613952818460208801612fd5565b835190830190613966818360208801612fd5565b64173539b7b760d91b9101908152600501949350505050565b60006001820161399157613991613764565b5060010190565b6001600160a01b03858116825284166020820152604081018390526080606082018190526000906139cb90830184612ff9565b9695505050505050565b6000602082840312156139e757600080fd5b8151611e0381612fa2565b60008251613a04818460208701612fd5565b9190910192915050565b81516001600160401b03811115613a2757613a27613116565b613a3b81613a3584546135ba565b84613620565b6020601f821160018114613a695760008315613a575750848201515b613a618482613667565b855550612533565b600084815260208120601f198516915b82811015613a995787850151825560209485019460019092019101613a79565b5084821015613ab75786840151600019600387901b60f8161c191681555b50505050600190811b0190555056fe360894a13ba1a3210667c828492db98dca3e2076cc3735a920a3ca505d382bbca26469706673582212204180b2f0dea1bb0784424c150b065c415dff2d22821c60e2ccb2c3112f52bfad64736f6c634300081c0033",
  "linkReferences": {},
  "deployedLinkReferences": {}
}