{
  "_format": "hh-sol-artifact-1",
  "contractName": "DengDefenseTowersV7",
  "sourceName": "contracts/DengDefenseTowersV7.sol",
  "abi": [
    {
      "inputs": [
        {
          "internalType": "address",
          "name": "target",
          "type": "address"
        }
      ],
      "name": "AddressEmptyCode",
      "type": "error"
    },
    {
      "inputs": [
        {
          "internalType": "address",
          "name": "implementation",
          "type": "address"
        }
      ],
      "name": "ERC1967InvalidImplementation",
      "type": "error"
    },
    {
      "inputs": [],
      "name": "ERC1967NonPayable",
      "type": "error"
    },
    {
      "inputs": [
        {
          "internalType": "address",
          "name": "sender",
          "type": "address"
        },
        {
          "internalType": "uint256",
          "name": "tokenId",
          "type": "uint256"
        },
        {
          "internalType": "address",
          "name": "owner",
          "type": "address"
        }
      ],
      "name": "ERC721IncorrectOwner",
      "type": "error"
    },
    {
      "inputs": [
        {
          "internalType": "address",
          "name": "operator",
          "type": "address"
        },
        {
          "internalType": "uint256",
          "name": "tokenId",
          "type": "uint256"
        }
      ],
      "name": "ERC721InsufficientApproval",
      "type": "error"
    },
    {
      "inputs": [
        {
          "internalType": "address",
          "name": "approver",
          "type": "address"
        }
      ],
      "name": "ERC721InvalidApprover",
      "type": "error"
    },
    {
      "inputs": [
        {
          "internalType": "address",
          "name": "operator",
          "type": "address"
        }
      ],
      "name": "ERC721InvalidOperator",
      "type": "error"
    },
    {
      "inputs": [
        {
          "internalType": "address",
          "name": "owner",
          "type": "address"
        }
      ],
      "name": "ERC721InvalidOwner",
      "type": "error"
    },
    {
      "inputs": [
        {
          "internalType": "address",
          "name": "receiver",
          "type": "address"
        }
      ],
      "name": "ERC721InvalidReceiver",
      "type": "error"
    },
    {
      "inputs": [
        {
          "internalType": "address",
          "name": "sender",
          "type": "address"
        }
      ],
      "name": "ERC721InvalidSender",
      "type": "error"
    },
    {
      "inputs": [
        {
          "internalType": "uint256",
          "name": "tokenId",
          "type": "uint256"
        }
      ],
      "name": "ERC721NonexistentToken",
      "type": "error"
    },
    {
      "inputs": [],
      "name": "EnforcedPause",
      "type": "error"
    },
    {
      "inputs": [],
      "name": "ExpectedPause",
      "type": "error"
    },
    {
      "inputs": [],
      "name": "FailedCall",
      "type": "error"
    },
    {
      "inputs": [],
      "name": "InvalidInitialization",
      "type": "error"
    },
    {
      "inputs": [],
      "name": "NotInitializing",
      "type": "error"
    },
    {
      "inputs": [
        {
          "internalType": "address",
          "name": "owner",
          "type": "address"
        }
      ],
      "name": "OwnableInvalidOwner",
      "type": "error"
    },
    {
      "inputs": [
        {
          "internalType": "address",
          "name": "account",
          "type": "address"
        }
      ],
      "name": "OwnableUnauthorizedAccount",
      "type": "error"
    },
    {
      "inputs": [],
      "name": "ReentrancyGuardReentrantCall",
      "type": "error"
    },
    {
      "inputs": [],
      "name": "Soulbound",
      "type": "error"
    },
    {
      "inputs": [],
      "name": "UUPSUnauthorizedCallContext",
      "type": "error"
    },
    {
      "inputs": [
        {
          "internalType": "bytes32",
          "name": "slot",
          "type": "bytes32"
        }
      ],
      "name": "UUPSUnsupportedProxiableUUID",
      "type": "error"
    },
    {
      "anonymous": false,
      "inputs": [],
      "name": "AdminFunctionsLocked",
      "type": "event"
    },
    {
      "anonymous": false,
      "inputs": [
        {
          "indexed": true,
          "internalType": "address",
          "name": "owner",
          "type": "address"
        },
        {
          "indexed": true,
          "internalType": "address",
          "name": "approved",
          "type": "address"
        },
        {
          "indexed": true,
          "internalType": "uint256",
          "name": "tokenId",
          "type": "uint256"
        }
      ],
      "name": "Approval",
      "type": "event"
    },
    {
      "anonymous": false,
      "inputs": [
        {
          "indexed": true,
          "internalType": "address",
          "name": "owner",
          "type": "address"
        },
        {
          "indexed": true,
          "internalType": "address",
          "name": "operator",
          "type": "address"
        },
        {
          "indexed": false,
          "internalType": "bool",
          "name": "approved",
          "type": "bool"
        }
      ],
      "name": "ApprovalForAll",
      "type": "event"
    },
    {
      "anonymous": false,
      "inputs": [
        {
          "indexed": true,
          "internalType": "address",
          "name": "player",
          "type": "address"
        },
        {
          "indexed": false,
          "internalType": "string",
          "name": "gameId",
          "type": "string"
        },
        {
          "indexed": false,
          "internalType": "uint256",
          "name": "mooEarned",
          "type": "uint256"
        },
        {
          "indexed": false,
          "internalType": "uint8",
          "name": "levelBeat",
          "type": "uint8"
        },
        {
          "indexed": false,
          "internalType": "uint16",
          "name": "wavesSurvived",
          "type": "uint16"
        },
        {
          "indexed": false,
          "internalType": "uint32",
          "name": "enemiesKilled",
          "type": "uint32"
        },
        {
          "indexed": false,
          "internalType": "uint8",
          "name": "livesRemaining",
          "type": "uint8"
        }
      ],
      "name": "GameResultPublished",
      "type": "event"
    },
    {
      "anonymous": false,
      "inputs": [
        {
          "indexed": false,
          "internalType": "uint64",
          "name": "version",
          "type": "uint64"
        }
      ],
      "name": "Initialized",
      "type": "event"
    },
    {
      "anonymous": false,
      "inputs": [
        {
          "indexed": true,
          "internalType": "address",
          "name": "previousOwner",
          "type": "address"
        },
        {
          "indexed": true,
          "internalType": "address",
          "name": "newOwner",
          "type": "address"
        }
      ],
      "name": "OwnershipTransferred",
      "type": "event"
    },
    {
      "anonymous": false,
      "inputs": [
        {
          "indexed": false,
          "internalType": "address",
          "name": "account",
          "type": "address"
        }
      ],
      "name": "Paused",
      "type": "event"
    },
    {
      "anonymous": false,
      "inputs": [
        {
          "indexed": true,
          "internalType": "address",
          "name": "player",
          "type": "address"
        },
        {
          "indexed": false,
          "internalType": "uint256[3]",
          "name": "tokenIds",
          "type": "uint256[3]"
        }
      ],
      "name": "StarterTowersMinted",
      "type": "event"
    },
    {
      "anonymous": false,
      "inputs": [
        {
          "indexed": true,
          "internalType": "uint256",
          "name": "tokenId",
          "type": "uint256"
        },
        {
          "components": [
            {
              "internalType": "uint16",
              "name": "level",
              "type": "uint16"
            },
            {
              "internalType": "uint32",
              "name": "damage",
              "type": "uint32"
            },
            {
              "internalType": "uint32",
              "name": "range",
              "type": "uint32"
            },
            {
              "internalType": "uint32",
              "name": "fireRate",
              "type": "uint32"
            },
            {
              "internalType": "uint8",
              "name": "towerType",
              "type": "uint8"
            }
          ],
          "indexed": false,
          "internalType": "struct DengDefenseTowers.TowerStats",
          "name": "newStats",
          "type": "tuple"
        }
      ],
      "name": "TowerUpgraded",
      "type": "event"
    },
    {
      "anonymous": false,
      "inputs": [
        {
          "indexed": true,
          "internalType": "uint256",
          "name": "tokenId",
          "type": "uint256"
        },
        {
          "indexed": false,
          "internalType": "uint256",
          "name": "newLevel",
          "type": "uint256"
        }
      ],
      "name": "TowerUpgraded",
      "type": "event"
    },
    {
      "anonymous": false,
      "inputs": [
        {
          "indexed": true,
          "internalType": "address",
          "name": "from",
          "type": "address"
        },
        {
          "indexed": true,
          "internalType": "address",
          "name": "to",
          "type": "address"
        },
        {
          "indexed": true,
          "internalType": "uint256",
          "name": "tokenId",
          "type": "uint256"
        }
      ],
      "name": "Transfer",
      "type": "event"
    },
    {
      "anonymous": false,
      "inputs": [
        {
          "indexed": false,
          "internalType": "string",
          "name": "newURI",
          "type": "string"
        }
      ],
      "name": "URIUpdated",
      "type": "event"
    },
    {
      "anonymous": false,
      "inputs": [
        {
          "indexed": false,
          "internalType": "address",
          "name": "account",
          "type": "address"
        }
      ],
      "name": "Unpaused",
      "type": "event"
    },
    {
      "anonymous": false,
      "inputs": [
        {
          "indexed": true,
          "internalType": "address",
          "name": "implementation",
          "type": "address"
        }
      ],
      "name": "Upgraded",
      "type": "event"
    },
    {
      "inputs": [],
      "name": "UPGRADE_INTERFACE_VERSION",
      "outputs": [
        {
          "internalType": "string",
          "name": "",
          "type": "string"
        }
      ],
      "stateMutability": "view",
      "type": "function"
    },
    {
      "inputs": [
        {
          "internalType": "uint256",
          "name": "tokenId",
          "type": "uint256"
        }
      ],
      "name": "adminBurn",
      "outputs": [],
      "stateMutability": "nonpayable",
      "type": "function"
    },
    {
      "inputs": [],
      "name": "adminLocked",
      "outputs": [
        {
          "internalType": "bool",
          "name": "",
          "type": "bool"
        }
      ],
      "stateMutability": "view",
      "type": "function"
    },
    {
      "inputs": [
        {
          "internalType": "uint256[]",
          "name": "tokenIds",
          "type": "uint256[]"
        },
        {
          "internalType": "uint256",
          "name": "targetLevel",
          "type": "uint256"
        }
      ],
      "name": "adminUpgradeBatch",
      "outputs": [],
      "stateMutability": "nonpayable",
      "type": "function"
    },
    {
      "inputs": [],
      "name": "apeToMooRate",
      "outputs": [
        {
          "internalType": "uint256",
          "name": "",
          "type": "uint256"
        }
      ],
      "stateMutability": "view",
      "type": "function"
    },
    {
      "inputs": [
        {
          "internalType": "address",
          "name": "",
          "type": "address"
        },
        {
          "internalType": "uint256",
          "name": "",
          "type": "uint256"
        }
      ],
      "name": "approve",
      "outputs": [],
      "stateMutability": "pure",
      "type": "function"
    },
    {
      "inputs": [],
      "name": "authorizedSigner",
      "outputs": [
        {
          "internalType": "address",
          "name": "",
          "type": "address"
        }
      ],
      "stateMutability": "view",
      "type": "function"
    },
    {
      "inputs": [
        {
          "internalType": "address",
          "name": "owner",
          "type": "address"
        }
      ],
      "name": "balanceOf",
      "outputs": [
        {
          "internalType": "uint256",
          "name": "",
          "type": "uint256"
        }
      ],
      "stateMutability": "view",
      "type": "function"
    },
    {
      "inputs": [],
      "name": "buyMoo",
      "outputs": [],
      "stateMutability": "payable",
      "type": "function"
    },
    {
      "inputs": [
        {
          "internalType": "uint8",
          "name": "towerType",
          "type": "uint8"
        }
      ],
      "name": "buyTower",
      "outputs": [
        {
          "internalType": "uint256",
          "name": "tokenId",
          "type": "uint256"
        }
      ],
      "stateMutability": "nonpayable",
      "type": "function"
    },
    {
      "inputs": [
        {
          "internalType": "uint256",
          "name": "amount",
          "type": "uint256"
        },
        {
          "internalType": "uint256",
          "name": "expiry",
          "type": "uint256"
        },
        {
          "internalType": "bytes",
          "name": "signature",
          "type": "bytes"
        }
      ],
      "name": "claim",
      "outputs": [],
      "stateMutability": "nonpayable",
      "type": "function"
    },
    {
      "inputs": [
        {
          "internalType": "address",
          "name": "",
          "type": "address"
        }
      ],
      "name": "claimNonces",
      "outputs": [
        {
          "internalType": "uint256",
          "name": "",
          "type": "uint256"
        }
      ],
      "stateMutability": "view",
      "type": "function"
    },
    {
      "inputs": [
        {
          "internalType": "uint256",
          "name": "",
          "type": "uint256"
        }
      ],
      "name": "getApproved",
      "outputs": [
        {
          "internalType": "address",
          "name": "",
          "type": "address"
        }
      ],
      "stateMutability": "pure",
      "type": "function"
    },
    {
      "inputs": [
        {
          "internalType": "address",
          "name": "owner",
          "type": "address"
        }
      ],
      "name": "getOwnedTowers",
      "outputs": [
        {
          "internalType": "uint256[]",
          "name": "",
          "type": "uint256[]"
        }
      ],
      "stateMutability": "view",
      "type": "function"
    },
    {
      "inputs": [
        {
          "internalType": "uint256",
          "name": "tokenId",
          "type": "uint256"
        }
      ],
      "name": "getTowerLevel",
      "outputs": [
        {
          "internalType": "uint256",
          "name": "",
          "type": "uint256"
        }
      ],
      "stateMutability": "view",
      "type": "function"
    },
    {
      "inputs": [
        {
          "internalType": "string",
          "name": "name_",
          "type": "string"
        },
        {
          "internalType": "string",
          "name": "symbol_",
          "type": "string"
        },
        {
          "internalType": "string",
          "name": "baseURI_",
          "type": "string"
        }
      ],
      "name": "initialize",
      "outputs": [],
      "stateMutability": "nonpayable",
      "type": "function"
    },
    {
      "inputs": [],
      "name": "initializeV6",
      "outputs": [],
      "stateMutability": "nonpayable",
      "type": "function"
    },
    {
      "inputs": [],
      "name": "initializeV7",
      "outputs": [],
      "stateMutability": "nonpayable",
      "type": "function"
    },
    {
      "inputs": [
        {
          "internalType": "address",
          "name": "",
          "type": "address"
        },
        {
          "internalType": "address",
          "name": "",
          "type": "address"
        }
      ],
      "name": "isApprovedForAll",
      "outputs": [
        {
          "internalType": "bool",
          "name": "",
          "type": "bool"
        }
      ],
      "stateMutability": "pure",
      "type": "function"
    },
    {
      "inputs": [],
      "name": "lockAdminFunctionsForever",
      "outputs": [],
      "stateMutability": "nonpayable",
      "type": "function"
    },
    {
      "inputs": [
        {
          "internalType": "address",
          "name": "to",
          "type": "address"
        }
      ],
      "name": "mintStarterTowers",
      "outputs": [
        {
          "internalType": "uint256[3]",
          "name": "ids",
          "type": "uint256[3]"
        }
      ],
      "stateMutability": "nonpayable",
      "type": "function"
    },
    {
      "inputs": [],
      "name": "name",
      "outputs": [
        {
          "internalType": "string",
          "name": "",
          "type": "string"
        }
      ],
      "stateMutability": "view",
      "type": "function"
    },
    {
      "inputs": [],
      "name": "owner",
      "outputs": [
        {
          "internalType": "address",
          "name": "",
          "type": "address"
        }
      ],
      "stateMutability": "view",
      "type": "function"
    },
    {
      "inputs": [
        {
          "internalType": "uint256",
          "name": "tokenId",
          "type": "uint256"
        }
      ],
      "name": "ownerOf",
      "outputs": [
        {
          "internalType": "address",
          "name": "",
          "type": "address"
        }
      ],
      "stateMutability": "view",
      "type": "function"
    },
    {
      "inputs": [],
      "name": "pause",
      "outputs": [],
      "stateMutability": "nonpayable",
      "type": "function"
    },
    {
      "inputs": [],
      "name": "paused",
      "outputs": [
        {
          "internalType": "bool",
          "name": "",
          "type": "bool"
        }
      ],
      "stateMutability": "view",
      "type": "function"
    },
    {
      "inputs": [],
      "name": "proxiableUUID",
      "outputs": [
        {
          "internalType": "bytes32",
          "name": "",
          "type": "bytes32"
        }
      ],
      "stateMutability": "view",
      "type": "function"
    },
    {
      "inputs": [
        {
          "internalType": "address",
          "name": "player",
          "type": "address"
        },
        {
          "internalType": "string",
          "name": "gameId",
          "type": "string"
        },
        {
          "internalType": "uint256",
          "name": "mooEarned",
          "type": "uint256"
        },
        {
          "internalType": "uint8",
          "name": "levelBeat",
          "type": "uint8"
        },
        {
          "internalType": "uint16",
          "name": "wavesSurvived",
          "type": "uint16"
        },
        {
          "internalType": "uint32",
          "name": "enemiesKilled",
          "type": "uint32"
        },
        {
          "internalType": "uint8",
          "name": "livesRemaining",
          "type": "uint8"
        }
      ],
      "name": "publishGameResult",
      "outputs": [],
      "stateMutability": "nonpayable",
      "type": "function"
    },
    {
      "inputs": [],
      "name": "renounceOwnership",
      "outputs": [],
      "stateMutability": "nonpayable",
      "type": "function"
    },
    {
      "inputs": [
        {
          "internalType": "address",
          "name": "nftContract",
          "type": "address"
        },
        {
          "internalType": "uint256",
          "name": "tokenId",
          "type": "uint256"
        }
      ],
      "name": "rescue721",
      "outputs": [],
      "stateMutability": "nonpayable",
      "type": "function"
    },
    {
      "inputs": [
        {
          "internalType": "address",
          "name": "token",
          "type": "address"
        }
      ],
      "name": "rescueTokens",
      "outputs": [],
      "stateMutability": "nonpayable",
      "type": "function"
    },
    {
      "inputs": [
        {
          "internalType": "address",
          "name": "from",
          "type": "address"
        },
        {
          "internalType": "address",
          "name": "to",
          "type": "address"
        },
        {
          "internalType": "uint256",
          "name": "tokenId",
          "type": "uint256"
        }
      ],
      "name": "safeTransferFrom",
      "outputs": [],
      "stateMutability": "nonpayable",
      "type": "function"
    },
    {
      "inputs": [
        {
          "internalType": "address",
          "name": "from",
          "type": "address"
        },
        {
          "internalType": "address",
          "name": "to",
          "type": "address"
        },
        {
          "internalType": "uint256",
          "name": "tokenId",
          "type": "uint256"
        },
        {
          "internalType": "bytes",
          "name": "data",
          "type": "bytes"
        }
      ],
      "name": "safeTransferFrom",
      "outputs": [],
      "stateMutability": "nonpayable",
      "type": "function"
    },
    {
      "inputs": [
        {
          "internalType": "address",
          "name": "",
          "type": "address"
        },
        {
          "internalType": "bool",
          "name": "",
          "type": "bool"
        }
      ],
      "name": "setApprovalForAll",
      "outputs": [],
      "stateMutability": "pure",
      "type": "function"
    },
    {
      "inputs": [
        {
          "internalType": "address",
          "name": "signer",
          "type": "address"
        }
      ],
      "name": "setAuthorizedSigner",
      "outputs": [],
      "stateMutability": "nonpayable",
      "type": "function"
    },
    {
      "inputs": [
        {
          "internalType": "string",
          "name": "newBase",
          "type": "string"
        }
      ],
      "name": "setBaseURI",
      "outputs": [],
      "stateMutability": "nonpayable",
      "type": "function"
    },
    {
      "inputs": [
        {
          "internalType": "uint256",
          "name": "rate",
          "type": "uint256"
        }
      ],
      "name": "setConversionRate",
      "outputs": [],
      "stateMutability": "nonpayable",
      "type": "function"
    },
    {
      "inputs": [
        {
          "internalType": "uint256",
          "name": "level",
          "type": "uint256"
        }
      ],
      "name": "setMaxLevel",
      "outputs": [],
      "stateMutability": "nonpayable",
      "type": "function"
    },
    {
      "inputs": [
        {
          "internalType": "address",
          "name": "token",
          "type": "address"
        }
      ],
      "name": "setMooToken",
      "outputs": [],
      "stateMutability": "nonpayable",
      "type": "function"
    },
    {
      "inputs": [
        {
          "internalType": "uint8",
          "name": "towerType",
          "type": "uint8"
        },
        {
          "internalType": "uint256",
          "name": "price",
          "type": "uint256"
        }
      ],
      "name": "setTowerPrice",
      "outputs": [],
      "stateMutability": "nonpayable",
      "type": "function"
    },
    {
      "inputs": [
        {
          "internalType": "address",
          "name": "_treasury",
          "type": "address"
        }
      ],
      "name": "setTreasury",
      "outputs": [],
      "stateMutability": "nonpayable",
      "type": "function"
    },
    {
      "inputs": [
        {
          "internalType": "uint256",
          "name": "level",
          "type": "uint256"
        },
        {
          "internalType": "uint256",
          "name": "price",
          "type": "uint256"
        }
      ],
      "name": "setUpgradePrice",
      "outputs": [],
      "stateMutability": "nonpayable",
      "type": "function"
    },
    {
      "inputs": [
        {
          "internalType": "bytes4",
          "name": "interfaceId",
          "type": "bytes4"
        }
      ],
      "name": "supportsInterface",
      "outputs": [
        {
          "internalType": "bool",
          "name": "",
          "type": "bool"
        }
      ],
      "stateMutability": "view",
      "type": "function"
    },
    {
      "inputs": [],
      "name": "symbol",
      "outputs": [
        {
          "internalType": "string",
          "name": "",
          "type": "string"
        }
      ],
      "stateMutability": "view",
      "type": "function"
    },
    {
      "inputs": [
        {
          "internalType": "uint256",
          "name": "tokenId",
          "type": "uint256"
        }
      ],
      "name": "tokenURI",
      "outputs": [
        {
          "internalType": "string",
          "name": "",
          "type": "string"
        }
      ],
      "stateMutability": "view",
      "type": "function"
    },
    {
      "inputs": [
        {
          "internalType": "uint8",
          "name": "",
          "type": "uint8"
        }
      ],
      "name": "towerPrices",
      "outputs": [
        {
          "internalType": "uint256",
          "name": "",
          "type": "uint256"
        }
      ],
      "stateMutability": "view",
      "type": "function"
    },
    {
      "inputs": [
        {
          "internalType": "address",
          "name": "",
          "type": "address"
        },
        {
          "internalType": "address",
          "name": "",
          "type": "address"
        },
        {
          "internalType": "uint256",
          "name": "",
          "type": "uint256"
        }
      ],
      "name": "transferFrom",
      "outputs": [],
      "stateMutability": "pure",
      "type": "function"
    },
    {
      "inputs": [
        {
          "internalType": "address",
          "name": "newOwner",
          "type": "address"
        }
      ],
      "name": "transferOwnership",
      "outputs": [],
      "stateMutability": "nonpayable",
      "type": "function"
    },
    {
      "inputs": [],
      "name": "treasury",
      "outputs": [
        {
          "internalType": "address",
          "name": "",
          "type": "address"
        }
      ],
      "stateMutability": "view",
      "type": "function"
    },
    {
      "inputs": [],
      "name": "unpause",
      "outputs": [],
      "stateMutability": "nonpayable",
      "type": "function"
    },
    {
      "inputs": [
        {
          "internalType": "uint256",
          "name": "",
          "type": "uint256"
        }
      ],
      "name": "upgradePrices",
      "outputs": [
        {
          "internalType": "uint256",
          "name": "",
          "type": "uint256"
        }
      ],
      "stateMutability": "view",
      "type": "function"
    },
    {
      "inputs": [
        {
          "internalType": "address",
          "name": "newImplementation",
          "type": "address"
        },
        {
          "internalType": "bytes",
          "name": "data",
          "type": "bytes"
        }
      ],
      "name": "upgradeToAndCall",
      "outputs": [],
      "stateMutability": "payable",
      "type": "function"
    },
    {
      "inputs": [
        {
          "internalType": "uint256",
          "name": "tokenId",
          "type": "uint256"
        }
      ],
      "name": "upgradeTower",
      "outputs": [],
      "stateMutability": "nonpayable",
      "type": "function"
    },
    {
      "inputs": [],
      "name": "version",
      "outputs": [
        {
          "internalType": "string",
          "name": "",
          "type": "string"
        }
      ],
      "stateMutability": "pure",
      "type": "function"
    },
    {
      "inputs": [],
      "name": "withdraw",
      "outputs": [],
      "stateMutability": "nonpayable",
      "type": "function"
    }
  ],
  "bytecode": "0x60a060405230608052348015601357600080fd5b50608051613eef61003d600039600081816122260152818161224f01526123870152613eef6000f3fe6080604052600436106102df5760003560e01c80637ab3c8d911610186578063b88d4fde116100d7578063d68cf49d11610085578063d68cf49d146108a8578063db6c7d3e146108c8578063e985e9c5146108f5578063f0f4426014610918578063f2fde38b14610938578063f2ff102114610958578063ff06aa681461097857600080fd5b8063b88d4fde146107d3578063badb97ff146107f3578063c771909c14610813578063c87b56dd14610833578063c8bf908714610853578063d279b0ca14610868578063d2e804941461088857600080fd5b8063a22cb46511610134578063a22cb465146106e4578063a381db0b146106ff578063a48484fd14610715578063a6487c5314610735578063ad3cb1cc14610755578063ad8f4be314610786578063afc27126146107b357600080fd5b80637ab3c8d91461063b5780638456cb59146106685780638c2502131461067d5780638da5cb5b1461068557806395d89b411461069a5780639e1efa5d146106af578063a10e57a8146106cf57600080fd5b80633f4ba83a116102405780635c975abb116101ee5780635c975abb146105715780635eddd1571461058657806360688803146105a657806361d027b3146105c65780636352211e146105e657806370a0823114610606578063715018a61461062657600080fd5b80633f4ba83a1461049857806342842e0e146104ad5780634b6280e5146104cd5780634f1ef286146104fa57806352d1902d1461050d57806354fd4d501461052257806355f804b31461055157600080fd5b80632222790e1161029d5780632222790e146103c057806323b872dd146103e05780632a869889146103fb578063344f1ba514610429578063367fe19b1461044957806338d70a69146104695780633ccfd60b1461048357600080fd5b8062ae3bf8146102e457806301ffc9a71461030657806306fdde031461033b578063080fc1101461035d578063081812fc14610372578063095ea7b3146103a0575b600080fd5b3480156102f057600080fd5b506103046102ff36600461337e565b6109a5565b005b34801561031257600080fd5b506103266103213660046133af565b610ad1565b60405190151581526020015b60405180910390f35b34801561034757600080fd5b50610350610ae2565b604051610332919061341c565b34801561036957600080fd5b50610304610b83565b34801561037e57600080fd5b5061039361038d36600461342f565b50600090565b6040516103329190613448565b3480156103ac57600080fd5b506103046103bb36600461345c565b610be6565b3480156103cc57600080fd5b506103046103db366004613497565b610bff565b3480156103ec57600080fd5b506103046103bb3660046134b3565b34801561040757600080fd5b5061041b6104163660046134f0565b610c65565b604051908152602001610332565b34801561043557600080fd5b5061030461044436600461342f565b610d6b565b34801561045557600080fd5b5061030461046436600461345c565b610ded565b34801561047557600080fd5b506031546103269060ff1681565b34801561048f57600080fd5b50610304610eab565b3480156104a457600080fd5b50610304610f29565b3480156104b957600080fd5b506103046104c83660046134b3565b610f39565b3480156104d957600080fd5b5061041b6104e83660046134f0565b60366020526000908152604090205481565b6103046105083660046135b5565b610f59565b34801561051957600080fd5b5061041b610f74565b34801561052e57600080fd5b50604080518082019091526006815265076372e302e360d41b6020820152610350565b34801561055d57600080fd5b5061030461056c36600461364a565b610f91565b34801561057d57600080fd5b50610326610fe4565b34801561059257600080fd5b506103046105a136600461368b565b610ff9565b3480156105b257600080fd5b506103046105c13660046136dd565b611217565b3480156105d257600080fd5b50603354610393906001600160a01b031681565b3480156105f257600080fd5b5061039361060136600461342f565b6112b9565b34801561061257600080fd5b5061041b61062136600461337e565b6112c4565b34801561063257600080fd5b5061030461131c565b34801561064757600080fd5b5061065b61065636600461337e565b61132e565b604051610332919061378f565b34801561067457600080fd5b50610304611418565b610304611428565b34801561069157600080fd5b506103936115e0565b3480156106a657600080fd5b5061035061160e565b3480156106bb57600080fd5b506103046106ca36600461337e565b61162b565b3480156106db57600080fd5b5061030461167e565b3480156106f057600080fd5b506103046103bb3660046137ce565b34801561070b57600080fd5b5061041b60325481565b34801561072157600080fd5b50610304610730366004613805565b61179d565b34801561074157600080fd5b50610304610750366004613827565b611838565b34801561076157600080fd5b50610350604051806040016040528060058152602001640352e302e360dc1b81525081565b34801561079257600080fd5b5061041b6107a136600461342f565b60606020526000908152604090205481565b3480156107bf57600080fd5b5061041b6107ce36600461342f565b611922565b3480156107df57600080fd5b506103046107ee3660046138b8565b611947565b3480156107ff57600080fd5b5061030461080e36600461342f565b611965565b34801561081f57600080fd5b50603454610393906001600160a01b031681565b34801561083f57600080fd5b5061035061084e36600461342f565b611999565b34801561085f57600080fd5b50610304611a2f565b34801561087457600080fd5b5061030461088336600461337e565b611ac8565b34801561089457600080fd5b506103046108a336600461342f565b611b15565b3480156108b457600080fd5b506103046108c336600461342f565b611b45565b3480156108d457600080fd5b5061041b6108e336600461337e565b60356020526000908152604090205481565b34801561090157600080fd5b5061032661091036600461391f565b600092915050565b34801561092457600080fd5b5061030461093336600461337e565b611d1e565b34801561094457600080fd5b5061030461095336600461337e565b611d6b565b34801561096457600080fd5b50610304610973366004613952565b611da6565b34801561098457600080fd5b5061099861099336600461337e565b611eb4565b60405161033291906139cc565b6109ad611f8e565b6109b5611fc0565b60315460ff16156109e15760405162461bcd60e51b81526004016109d890613a0f565b60405180910390fd5b806001600160a01b031663a9059cbb6109f86115e0565b6040516370a0823160e01b81526001600160a01b038516906370a0823190610a24903090600401613448565b602060405180830381865afa158015610a41573d6000803e3d6000fd5b505050506040513d601f19601f82011682018060405250810190610a659190613a46565b6040518363ffffffff1660e01b8152600401610a82929190613a5f565b6020604051808303816000875af1158015610aa1573d6000803e3d6000fd5b505050506040513d601f19601f82011682018060405250810190610ac59190613a78565b50610ace61200a565b50565b6000610adc82612030565b92915050565b60606000610aee612080565b9050806000018054610aff90613a95565b80601f0160208091040260200160405190810160405280929190818152602001828054610b2b90613a95565b8015610b785780601f10610b4d57610100808354040283529160200191610b78565b820191906000526020600020905b815481529060010190602001808311610b5b57829003601f168201915b505050505091505090565b610b8b611f8e565b60315460ff1615610bae5760405162461bcd60e51b81526004016109d890613a0f565b6031805460ff191660011790556040517fa28ab6d6853152b104da0d6575c49d6d5f07dde463e8698f9d9bb14cc70276b390600090a1565b60405163a4420a9560e01b815260040160405180910390fd5b610c07611f8e565b60315460ff1615610c2a5760405162461bcd60e51b81526004016109d890613a0f565b8160038160ff1610610c4e5760405162461bcd60e51b81526004016109d890613acf565b5060ff909116600090815260366020526040902055565b6000610c6f6120a4565b8160038160ff1610610c935760405162461bcd60e51b81526004016109d890613acf565b60ff831660009081526036602052604090205480610ce35760405162461bcd60e51b815260206004820152600d60248201526c141c9a58d9481b9bdd081cd95d609a1b60448201526064016109d8565b60315460405163079cc67960e41b81526101009091046001600160a01b0316906379cc679090610d199033908590600401613a5f565b600060405180830381600087803b158015610d3357600080fd5b505af1158015610d47573d6000803e3d6000fd5b505050506000610d56856120ca565b9050610d6233826121a3565b95945050505050565b610d73611f8e565b60315460ff1615610d965760405162461bcd60e51b81526004016109d890613a0f565b60018110158015610da8575060648111155b610de85760405162461bcd60e51b8152602060048201526011602482015270125b9d985b1a59081b585e081b195d995b607a1b60448201526064016109d8565b606155565b610df5611f8e565b610dfd611fc0565b60315460ff1615610e205760405162461bcd60e51b81526004016109d890613a0f565b816001600160a01b03166323b872dd30610e386115e0565b6040516001600160e01b031960e085901b1681526001600160a01b0392831660048201529116602482015260448101849052606401600060405180830381600087803b158015610e8757600080fd5b505af1158015610e9b573d6000803e3d6000fd5b50505050610ea761200a565b5050565b610eb3611f8e565b610ebb611fc0565b60315460ff1615610ede5760405162461bcd60e51b81526004016109d890613a0f565b610ee66115e0565b6001600160a01b03166108fc479081150290604051600060405180830381858888f19350505050158015610f1e573d6000803e3d6000fd5b50610f2761200a565b565b610f31611f8e565b610f276121c4565b610f5483838360405180602001604052806000815250611947565b505050565b610f6161221b565b610f6a826122c0565b610ea782826122c8565b6000610f7e61237c565b50600080516020613e9a83398151915290565b610f99611f8e565b6003610fa6828483613b57565b507fe3afa94108b5f5e82e5f6e539d161ff4b5402a85f696c67b9768ec3ae54ce3668282604051610fd8929190613c39565b60405180910390a15050565b600080610fef6123c5565b5460ff1692915050565b6110016120a4565b824211156110415760405162461bcd60e51b815260206004820152600d60248201526c10db185a5b48195e1c1a5c9959609a1b60448201526064016109d8565b33600081815260356020908152604080832054815160609590951b6bffffffffffffffffffffffff191685840152603485018990526054850188905260748086018290528251808703909101815260948601909252815191909201207f19457468657265756d205369676e6564204d6573736167653a0a33320000000060b485015260d08401819052909290919060f001604051602081830303815290604052805190602001209050600061112c8287878080601f0160208091040260200160405190810160405280939291908181526020018383808284376000920191909152506123e992505050565b6034549091506001600160a01b038083169116146111805760405162461bcd60e51b8152602060048201526011602482015270496e76616c6964207369676e617475726560781b60448201526064016109d8565b3360009081526035602052604081208054600192906111a0908490613c63565b90915550506031546040516340c10f1960e01b81526101009091046001600160a01b0316906340c10f19906111db9033908c90600401613a5f565b600060405180830381600087803b1580156111f557600080fd5b505af1158015611209573d6000803e3d6000fd5b505050505050505050505050565b6034546001600160a01b031633146112625760405162461bcd60e51b815260206004820152600e60248201526d139bdd08185d5d1a1bdc9a5e995960921b60448201526064016109d8565b876001600160a01b03167f357c1660c29758de08aef5718b52285fb0b1f70e15575bc08de513b82f3f532d888888888888886040516112a79796959493929190613c76565b60405180910390a25050505050505050565b6000610adc82612468565b6000806112cf612080565b90506001600160a01b0383166112fb5760006040516322718ad960e21b81526004016109d89190613448565b6001600160a01b039092166000908152600390920160205250604090205490565b611324611f8e565b610f2760006124a0565b611336613344565b61133e611f8e565b6113466120a4565b61134f826112c4565b156113925760405162461bcd60e51b8152602060048201526013602482015272416c7265616479206f776e7320746f7765727360681b60448201526064016109d8565b6113a5826113a060006120ca565b6121a3565b81526113b5826113a060016120ca565b60208201526113c8826113a060026120ca565b81600260200201526040516001600160a01b038316907f49989188f2801bf0efd3a47273c7c521d4642bbcb38833f098192c7c6821f40a9061140b90849061378f565b60405180910390a2919050565b611420611f8e565b610f27612511565b6114306120a4565b6000341161146e5760405162461bcd60e51b815260206004820152600b60248201526a139bc8105411481cd95b9d60aa1b60448201526064016109d8565b6000603254116114ba5760405162461bcd60e51b815260206004820152601760248201527610dbdb9d995c9cda5bdb881c985d19481b9bdd081cd95d604a1b60448201526064016109d8565b6000603254346114ca9190613cdc565b6031546040516340c10f1960e01b815291925061010090046001600160a01b0316906340c10f19906115029033908590600401613a5f565b600060405180830381600087803b15801561151c57600080fd5b505af1158015611530573d6000803e3d6000fd5b50506033546001600160a01b0316159150610ace9050576033546040516000916001600160a01b03169034908381818185875af1925050503d8060008114611594576040519150601f19603f3d011682016040523d82523d6000602084013e611599565b606091505b5050905080610ea75760405162461bcd60e51b8152602060048201526013602482015272105411481d1c985b9cd9995c8819985a5b1959606a1b60448201526064016109d8565b7f9016d09d72d40fdae2fd8ceac6b6234c7706214fd39c1cd1e609a0528c199300546001600160a01b031690565b6060600061161a612080565b9050806001018054610aff90613a95565b611633611f8e565b60315460ff16156116565760405162461bcd60e51b81526004016109d890613a0f565b603180546001600160a01b0390921661010002610100600160a81b0319909216919091179055565b6006600061168a612558565b8054909150600160401b900460ff16806116b1575080546001600160401b03808416911610155b156116cf5760405163f92ee8a960e01b815260040160405180910390fd5b805468ffffffffffffffffff19166001600160401b03831617600160401b178155604080518082018252600c81526b44656e6720446566656e736560a01b6020808301919091528251808401845260098152682222a723aa27aba2a960b91b818301528351808501909452601984527868747470733a2f2f6d657461646174612e75726c2f6170692f60381b9184019190915261176b92612581565b805460ff60401b191681556040516001600160401b0383168152600080516020613e7a83398151915290602001610fd8565b6117a5611f8e565b60315460ff16156117c85760405162461bcd60e51b81526004016109d890613a0f565b6000811180156117e2575069d3c21bcecceda10000008111155b6118265760405162461bcd60e51b8152602060048201526015602482015274496e76616c6964207570677261646520707269636560581b60448201526064016109d8565b60009182526060602052604090912055565b6000611842612558565b805490915060ff600160401b82041615906001600160401b03166000811580156118695750825b90506000826001600160401b031660011480156118855750303b155b905081158015611893575080155b156118b15760405163f92ee8a960e01b815260040160405180910390fd5b845467ffffffffffffffff1916600117855583156118db57845460ff60401b1916600160401b1785555b6118e361167e565b831561191857845460ff60401b1916855560405160018152600080516020613e7a833981519152906020015b60405180910390a15b5050505050505050565b6000818152605f6020526040812054801561193d5780611940565b60015b9392505050565b611952848484610be6565b61195f338585858561262f565b50505050565b61196d611f8e565b60315460ff16156119905760405162461bcd60e51b81526004016109d890613a0f565b610ace81612748565b606060006119a683612783565b6001600160a01b0316036119f75760405162461bcd60e51b8152602060048201526018602482015277115490cdcc8c4e881a5b9d985b1a59081d1bdad95b88125160421b60448201526064016109d8565b6119ff6127ac565b611a088361283e565b604051602001611a19929190613cf3565b6040516020818303038152906040529050919050565b60076000611a3b612558565b8054909150600160401b900460ff1680611a62575080546001600160401b03808416911610155b15611a805760405163f92ee8a960e01b815260040160405180910390fd5b805468ffffffffffffffffff19166001600160401b038316908117600160401b1760ff60401b19168255604051908152600080516020613e7a83398151915290602001610fd8565b611ad0611f8e565b60315460ff1615611af35760405162461bcd60e51b81526004016109d890613a0f565b603480546001600160a01b0319166001600160a01b0392909216919091179055565b611b1d611f8e565b60315460ff1615611b405760405162461bcd60e51b81526004016109d890613a0f565b603255565b611b4d6120a4565b33611b57826112b9565b6001600160a01b031614611b9f5760405162461bcd60e51b815260206004820152600f60248201526e2737ba103a37bbb2b91037bbb732b960891b60448201526064016109d8565b6000818152605f6020526040812054908115611bc557611bc0826001613c63565b611bc8565b60025b9050606154811115611c105760405162461bcd60e51b815260206004820152601160248201527013585e081b195d995b081c995858da1959607a1b60448201526064016109d8565b60008181526060602052604090205480611c635760405162461bcd60e51b8152602060048201526014602482015273155c19dc9859194818dbdcdd081b9bdd081cd95d60621b60448201526064016109d8565b60315460405163079cc67960e41b81526101009091046001600160a01b0316906379cc679090611c999033908590600401613a5f565b600060405180830381600087803b158015611cb357600080fd5b505af1158015611cc7573d6000803e3d6000fd5b5050506000858152605f602052604090819020849055518591507f2d4bcf88b5a3e8685effbe296f2ef4fdc4e0997b0baea0aad026b03ebc0051b090611d109085815260200190565b60405180910390a250505050565b611d26611f8e565b60315460ff1615611d495760405162461bcd60e51b81526004016109d890613a0f565b603380546001600160a01b0319166001600160a01b0392909216919091179055565b611d73611f8e565b6001600160a01b038116611d9d576000604051631e4fbdf760e01b81526004016109d89190613448565b610ace816124a0565b611dae611f8e565b60315460ff1615611dd15760405162461bcd60e51b81526004016109d890613a0f565b600081118015611de357506061548111155b611e1f5760405162461bcd60e51b815260206004820152600d60248201526c125b9d985b1a59081b195d995b609a1b60448201526064016109d8565b60005b8281101561195f5781605f6000868685818110611e4157611e41613cc6565b90506020020135815260200190815260200160002081905550838382818110611e6c57611e6c613cc6565b905060200201357f2d4bcf88b5a3e8685effbe296f2ef4fdc4e0997b0baea0aad026b03ebc0051b083604051611ea491815260200190565b60405180910390a2600101611e22565b60606000611ec1836112c4565b90506000816001600160401b03811115611edd57611edd61350b565b604051908082528060200260200182016040528015611f06578160200160208202803683370190505b50600254909150600060015b8281108015611f2057508482105b15611f8357866001600160a01b0316611f3882612783565b6001600160a01b031603611f7157808483611f5281613d32565b945081518110611f6457611f64613cc6565b6020026020010181815250505b80611f7b81613d32565b915050611f12565b509195945050505050565b33611f976115e0565b6001600160a01b031614610f27573360405163118cdaa760e01b81526004016109d89190613448565b7f9b779b17422d0df92223018b32b4d1fa46e071723d6817e2486d003becc55f0080546001190161200457604051633ee5aeb560e01b815260040160405180910390fd5b60029055565b60017f9b779b17422d0df92223018b32b4d1fa46e071723d6817e2486d003becc55f0055565b60006001600160e01b031982166380ac58cd60e01b148061206157506001600160e01b03198216635b5e139f60e01b145b80610adc57506301ffc9a760e01b6001600160e01b0319831614610adc565b7f80bb2b638cc20bc4d0a60d66940f3ab4a00c1d7b313497ca82fb0b4ab007930090565b6120ac610fe4565b15610f275760405163d93c066560e01b815260040160405180910390fd5b6040805160a0810182526000808252602082018190529181018290526060810182905260808101919091528160ff166000036121315750506040805160a0808201835260018252600a6020830152918101919091526103e860608201526000608082015290565b8160ff166001036121715750506040805160a08101825260018082526019602083015261012c928201929092526109606060820152608081019190915290565b50506040805160a0810182526001815260046020820152608c9181019190915261070860608201526002608082015290565b60028054600091826121b483613d32565b919050559050610adc83826128d0565b6121cc6128ea565b60006121d66123c5565b805460ff1916815590507f5db9ee0a495bf2e6ff9c91a7834c1ba4fdd244a5e8aa4e537bd38aeae4b073aa335b6040516122109190613448565b60405180910390a150565b306001600160a01b037f00000000000000000000000000000000000000000000000000000000000000001614806122a257507f00000000000000000000000000000000000000000000000000000000000000006001600160a01b0316612296600080516020613e9a833981519152546001600160a01b031690565b6001600160a01b031614155b15610f275760405163703e46dd60e11b815260040160405180910390fd5b610ace611f8e565b816001600160a01b03166352d1902d6040518163ffffffff1660e01b8152600401602060405180830381865afa925050508015612322575060408051601f3d908101601f1916820190925261231f91810190613a46565b60015b6123415781604051634c9c8ce360e01b81526004016109d89190613448565b600080516020613e9a833981519152811461237257604051632a87526960e21b8152600481018290526024016109d8565b610f54838361290f565b306001600160a01b037f00000000000000000000000000000000000000000000000000000000000000001614610f275760405163703e46dd60e11b815260040160405180910390fd5b7fcd5ed15c6e187e77e9aee88184c21f4f2182ab5827cb3b7e07fbedcd63f0330090565b6000806000806123f885612965565b6040805160008152602081018083528b905260ff8316918101919091526060810184905260808101839052929550909350915060019060a0016020604051602081039080840390855afa158015612453573d6000803e3d6000fd5b5050604051601f190151979650505050505050565b60008061247483612783565b90506001600160a01b038116610adc57604051637e27328960e01b8152600481018490526024016109d8565b7f9016d09d72d40fdae2fd8ceac6b6234c7706214fd39c1cd1e609a0528c19930080546001600160a01b031981166001600160a01b03848116918217845560405192169182907f8be0079c531659141344cd1fd0a4f28419497f9722a3daafe3b4186f6b6457e090600090a3505050565b6125196120a4565b60006125236123c5565b805460ff1916600117815590507f62e78cea01bee320cd4e420270b5ea74000d11b0c9f74754ebdbfc544b05a2586122033390565b6000807ff0c57e16840df040f15088dc2f81fe391c3923bec73e23a9662efc9c229c6a00610adc565b600061258b612558565b805490915060ff600160401b82041615906001600160401b03166000811580156125b25750825b90506000826001600160401b031660011480156125ce5750303b155b9050811580156125dc575080155b156125fa5760405163f92ee8a960e01b815260040160405180910390fd5b845467ffffffffffffffff19166001178555831561262457845460ff60401b1916600160401b1785555b6118e38888886129d4565b6001600160a01b0383163b1561274157604051630a85bd0160e11b81526001600160a01b0384169063150b7a0290612671908890889087908790600401613d4b565b6020604051808303816000875af19250505080156126ac575060408051601f3d908101601f191682019092526126a991810190613d88565b60015b61270c573d8080156126da576040519150601f19603f3d011682016040523d82523d6000602084013e6126df565b606091505b5080516000036127045783604051633250574960e11b81526004016109d89190613448565b805160208201fd5b6001600160e01b03198116630a85bd0160e11b1461273f5783604051633250574960e11b81526004016109d89190613448565b505b5050505050565b60006127576000836000612a82565b90506001600160a01b038116610ea757604051637e27328960e01b8152600481018390526024016109d8565b60008061278e612080565b6000938452600201602052505060409020546001600160a01b031690565b6060600380546127bb90613a95565b80601f01602080910402602001604051908101604052809291908181526020018280546127e790613a95565b80156128345780601f1061280957610100808354040283529160200191612834565b820191906000526020600020905b81548152906001019060200180831161281757829003601f168201915b5050505050905090565b6060600061284b83612b89565b60010190506000816001600160401b0381111561286a5761286a61350b565b6040519080825280601f01601f191660200182016040528015612894576020820181803683370190505b5090508181016020015b600019016f181899199a1a9b1b9c1cb0b131b232b360811b600a86061a8153600a850494508461289e57509392505050565b610ea7828260405180602001604052806000815250612c61565b6128f2610fe4565b610f2757604051638dfc202b60e01b815260040160405180910390fd5b61291882612c79565b6040516001600160a01b038316907fbc7cd75a20ee27fd9adebab32041f755214dbc6bffa90cc0225b39da2e5c2d3b90600090a280511561295d57610f548282612cd5565b610ea7612d42565b600080600083516041146129b65760405162461bcd60e51b8152602060048201526018602482015277092dcecc2d8d2c840e6d2cedcc2e8eae4ca40d8cadccee8d60431b60448201526064016109d8565b50505060208101516040820151606090920151909260009190911a90565b60006129de612558565b805490915060ff600160401b82041615906001600160401b0316600081158015612a055750825b90506000826001600160401b03166001148015612a215750303b155b905081158015612a2f575080155b15612a4d5760405163f92ee8a960e01b815260040160405180910390fd5b845467ffffffffffffffff191660011785558315612a7757845460ff60401b1916600160401b1785555b6118e3888888612d61565b600080612a8d612080565b90506000612a9a85612783565b90506001600160a01b03841615612ab657612ab6818587612e0f565b6001600160a01b03811615612af657612ad3600086600080612e65565b6001600160a01b0381166000908152600383016020526040902080546000190190555b6001600160a01b03861615612b27576001600160a01b03861660009081526003830160205260409020805460010190555b600085815260028301602052604080822080546001600160a01b0319166001600160a01b038a811691821790925591518893918516917fddf252ad1be2c89b69c2b068fc378daa952ba7f163c4a11628f55a4df523b3ef91a495945050505050565b60008072184f03e93ff9f4daa797ed6e38ed64bf6a1f0160401b8310612bc85772184f03e93ff9f4daa797ed6e38ed64bf6a1f0160401b830492506040015b6d04ee2d6d415b85acef81000000008310612bf4576d04ee2d6d415b85acef8100000000830492506020015b662386f26fc100008310612c1257662386f26fc10000830492506010015b6305f5e1008310612c2a576305f5e100830492506008015b6127108310612c3e57612710830492506004015b60648310612c50576064830492506002015b600a8310610adc5760010192915050565b612c6b8383612f66565b610f5433600085858561262f565b806001600160a01b03163b600003612ca65780604051634c9c8ce360e01b81526004016109d89190613448565b600080516020613e9a83398151915280546001600160a01b0319166001600160a01b0392909216919091179055565b6060600080846001600160a01b031684604051612cf29190613da5565b600060405180830381855af49150503d8060008114612d2d576040519150601f19603f3d011682016040523d82523d6000602084013e612d32565b606091505b5091509150610d62858383612fcb565b3415610f275760405163b398979f60e01b815260040160405180910390fd5b6000612d6b612558565b805490915060ff600160401b82041615906001600160401b0316600081158015612d925750825b90506000826001600160401b03166001148015612dae5750303b155b905081158015612dbc575080155b15612dda5760405163f92ee8a960e01b815260040160405180910390fd5b845467ffffffffffffffff191660011785558315612e0457845460ff60401b1916600160401b1785555b6118e388888861301e565b612e1a8383836130dc565b610f54576001600160a01b038316612e4857604051637e27328960e01b8152600481018290526024016109d8565b818160405163177e802f60e01b81526004016109d8929190613a5f565b6000612e6f612080565b90508180612e8557506001600160a01b03831615155b15612f35576000612e9585612468565b90506001600160a01b03841615801590612ec15750836001600160a01b0316816001600160a01b031614155b8015612ecb575060015b15612eeb578360405163a9fbf51f60e01b81526004016109d89190613448565b8215612f335784866001600160a01b0316826001600160a01b03167f8c5be1e5ebec7d5bd14f71427d1e84f3dd0314c0f7b2291e5b200ac8c7c3b92560405160405180910390a45b505b600093845260040160205250506040902080546001600160a01b0319166001600160a01b0392909216919091179055565b6001600160a01b038216612f90576000604051633250574960e11b81526004016109d89190613448565b6000612f9e83836000612a82565b90506001600160a01b03811615610f545760006040516339e3563760e11b81526004016109d89190613448565b606082612fe057612fdb8261313b565b611940565b8151158015612ff757506001600160a01b0384163b155b156130175783604051639996b31560e01b81526004016109d89190613448565b5080611940565b6000613028612558565b805490915060ff600160401b82041615906001600160401b031660008115801561304f5750825b90506000826001600160401b0316600114801561306b5750303b155b905081158015613079575080155b156130975760405163f92ee8a960e01b815260040160405180910390fd5b845467ffffffffffffffff1916600117855583156130c157845460ff60401b1916600160401b1785555b6130cc888888613163565b6130d4613263565b6118e3613273565b60006001600160a01b038316158015906131335750826001600160a01b0316846001600160a01b0316148061310f575060005b806131335750826001600160a01b03166131288361327b565b6001600160a01b0316145b949350505050565b80511561314a57805160208201fd5b60405163d6bda27560e01b815260040160405180910390fd5b600061316d612558565b805490915060ff600160401b82041615906001600160401b03166000811580156131945750825b90506000826001600160401b031660011480156131b05750303b155b9050811580156131be575080155b156131dc5760405163f92ee8a960e01b815260040160405180910390fd5b845467ffffffffffffffff19166001178555831561320657845460ff60401b1916600160401b1785555b61321088886132a4565b613219336132b6565b613221613273565b600361322d8782613dc1565b506001600255831561191857845460ff60401b1916855560405160018152600080516020613e7a8339815191529060200161190f565b61326b6132c7565b610f276132ec565b610f276132c7565b600080613286612080565b6000938452600401602052505060409020546001600160a01b031690565b6132ac6132c7565b610ea782826132f4565b6132be6132c7565b610ace81613322565b6132cf61332a565b610f2757604051631afcd79f60e31b815260040160405180910390fd5b61200a6132c7565b6132fc6132c7565b6000613306612080565b9050806133138482613dc1565b506001810161195f8382613dc1565b611d736132c7565b6000613334612558565b54600160401b900460ff16919050565b60405180606001604052806003906020820280368337509192915050565b80356001600160a01b038116811461337957600080fd5b919050565b60006020828403121561339057600080fd5b61194082613362565b6001600160e01b031981168114610ace57600080fd5b6000602082840312156133c157600080fd5b813561194081613399565b60005b838110156133e75781810151838201526020016133cf565b50506000910152565b600081518084526134088160208601602086016133cc565b601f01601f19169290920160200192915050565b60208152600061194060208301846133f0565b60006020828403121561344157600080fd5b5035919050565b6001600160a01b0391909116815260200190565b6000806040838503121561346f57600080fd5b61347883613362565b946020939093013593505050565b803560ff8116811461337957600080fd5b600080604083850312156134aa57600080fd5b61347883613486565b6000806000606084860312156134c857600080fd5b6134d184613362565b92506134df60208501613362565b929592945050506040919091013590565b60006020828403121561350257600080fd5b61194082613486565b634e487b7160e01b600052604160045260246000fd5b600082601f83011261353257600080fd5b8135602083016000806001600160401b038411156135525761355261350b565b50604051601f19601f85018116603f011681018181106001600160401b03821117156135805761358061350b565b60405283815290508082840187101561359857600080fd5b838360208301376000602085830101528094505050505092915050565b600080604083850312156135c857600080fd5b6135d183613362565b915060208301356001600160401b038111156135ec57600080fd5b6135f885828601613521565b9150509250929050565b60008083601f84011261361457600080fd5b5081356001600160401b0381111561362b57600080fd5b60208301915083602082850101111561364357600080fd5b9250929050565b6000806020838503121561365d57600080fd5b82356001600160401b0381111561367357600080fd5b61367f85828601613602565b90969095509350505050565b600080600080606085870312156136a157600080fd5b843593506020850135925060408501356001600160401b038111156136c557600080fd5b6136d187828801613602565b95989497509550505050565b60008060008060008060008060e0898b0312156136f957600080fd5b61370289613362565b975060208901356001600160401b0381111561371d57600080fd5b6137298b828c01613602565b9098509650506040890135945061374260608a01613486565b9350608089013561ffff8116811461375957600080fd5b925060a089013563ffffffff8116811461377257600080fd5b915061378060c08a01613486565b90509295985092959890939650565b60608101818360005b60038110156137b7578151835260209283019290910190600101613798565b50505092915050565b8015158114610ace57600080fd5b600080604083850312156137e157600080fd5b6137ea83613362565b915060208301356137fa816137c0565b809150509250929050565b6000806040838503121561381857600080fd5b50508035926020909101359150565b60008060006060848603121561383c57600080fd5b83356001600160401b0381111561385257600080fd5b61385e86828701613521565b93505060208401356001600160401b0381111561387a57600080fd5b61388686828701613521565b92505060408401356001600160401b038111156138a257600080fd5b6138ae86828701613521565b9150509250925092565b600080600080608085870312156138ce57600080fd5b6138d785613362565b93506138e560208601613362565b92506040850135915060608501356001600160401b0381111561390757600080fd5b61391387828801613521565b91505092959194509250565b6000806040838503121561393257600080fd5b61393b83613362565b915061394960208401613362565b90509250929050565b60008060006040848603121561396757600080fd5b83356001600160401b0381111561397d57600080fd5b8401601f8101861361398e57600080fd5b80356001600160401b038111156139a457600080fd5b8660208260051b84010111156139b957600080fd5b6020918201979096509401359392505050565b602080825282518282018190526000918401906040840190835b81811015613a045783518352602093840193909201916001016139e6565b509095945050505050565b6020808252601e908201527f41646d696e2066756e6374696f6e73206c6f636b656420666f72657665720000604082015260600190565b600060208284031215613a5857600080fd5b5051919050565b6001600160a01b03929092168252602082015260400190565b600060208284031215613a8a57600080fd5b8151611940816137c0565b600181811c90821680613aa957607f821691505b602082108103613ac957634e487b7160e01b600052602260045260246000fd5b50919050565b602080825260129082015271496e76616c696420746f776572207479706560701b604082015260600190565b601f821115610f5457806000526020600020601f840160051c81016020851015613b225750805b601f840160051c820191505b818110156127415760008155600101613b2e565b600019600383901b1c191660019190911b1790565b6001600160401b03831115613b6e57613b6e61350b565b613b8283613b7c8354613a95565b83613afb565b6000601f841160018114613bb05760008515613b9e5750838201355b613ba88682613b42565b845550612741565b600083815260209020601f19861690835b82811015613be15786850135825560209485019460019092019101613bc1565b5086821015613bfe5760001960f88860031b161c19848701351681555b505060018560011b0183555050505050565b81835281816020850137506000828201602090810191909152601f909101601f19169091010190565b602081526000613133602083018486613c10565b634e487b7160e01b600052601160045260246000fd5b80820180821115610adc57610adc613c4d565b60c081526000613c8a60c08301898b613c10565b905086602083015260ff8616604083015261ffff8516606083015263ffffffff8416608083015260ff831660a083015298975050505050505050565b634e487b7160e01b600052603260045260246000fd5b8082028115828204841417610adc57610adc613c4d565b60008351613d058184602088016133cc565b835190830190613d198183602088016133cc565b64173539b7b760d91b9101908152600501949350505050565b600060018201613d4457613d44613c4d565b5060010190565b6001600160a01b0385811682528416602082015260408101839052608060608201819052600090613d7e908301846133f0565b9695505050505050565b600060208284031215613d9a57600080fd5b815161194081613399565b60008251613db78184602087016133cc565b9190910192915050565b81516001600160401b03811115613dda57613dda61350b565b613dee81613de88454613a95565b84613afb565b6020601f821160018114613e1c5760008315613e0a5750848201515b613e148482613b42565b855550612741565b600084815260208120601f198516915b82811015613e4c5787850151825560209485019460019092019101613e2c565b5084821015613e6a5786840151600019600387901b60f8161c191681555b50505050600190811b0190555056fec7f505b2f371ae2175ee4913f4499e1f2633a7b5936321eed1cdaeb6115181d2360894a13ba1a3210667c828492db98dca3e2076cc3735a920a3ca505d382bbca2646970667358221220cc2c928816e7e83edba215bf198ee36165136ae81ebc7348c918ad1034cfe51564736f6c634300081c0033",
  "linkReferences": {},
  "deployedLinkReferences": {}
}