{
  "_format": "hh-sol-artifact-1",
  "contractName": "MooToken",
  "sourceName": "contracts/MooToken.sol",
  "abi": [
    {
      "inputs": [
        {
          "internalType": "address",
          "name": "spender",
          "type": "address"
        },
        {
          "internalType": "uint256",
          "name": "allowance",
          "type": "uint256"
        },
        {
          "internalType": "uint256",
          "name": "needed",
          "type": "uint256"
        }
      ],
      "name": "ERC20InsufficientAllowance",
      "type": "error"
    },
    {
      "inputs": [
        {
          "internalType": "address",
          "name": "sender",
          "type": "address"
        },
        {
          "internalType": "uint256",
          "name": "balance",
          "type": "uint256"
        },
        {
          "internalType": "uint256",
          "name": "needed",
          "type": "uint256"
        }
      ],
      "name": "ERC20InsufficientBalance",
      "type": "error"
    },
    {
      "inputs": [
        {
          "internalType": "address",
          "name": "approver",
          "type": "address"
        }
      ],
      "name": "ERC20InvalidApprover",
      "type": "error"
    },
    {
      "inputs": [
        {
          "internalType": "address",
          "name": "receiver",
          "type": "address"
        }
      ],
      "name": "ERC20InvalidReceiver",
      "type": "error"
    },
    {
      "inputs": [
        {
          "internalType": "address",
          "name": "sender",
          "type": "address"
        }
      ],
      "name": "ERC20InvalidSender",
      "type": "error"
    },
    {
      "inputs": [
        {
          "internalType": "address",
          "name": "spender",
          "type": "address"
        }
      ],
      "name": "ERC20InvalidSpender",
      "type": "error"
    },
    {
      "inputs": [],
      "name": "InvalidInitialization",
      "type": "error"
    },
    {
      "inputs": [],
      "name": "NotInitializing",
      "type": "error"
    },
    {
      "inputs": [
        {
          "internalType": "address",
          "name": "owner",
          "type": "address"
        }
      ],
      "name": "OwnableInvalidOwner",
      "type": "error"
    },
    {
      "inputs": [
        {
          "internalType": "address",
          "name": "account",
          "type": "address"
        }
      ],
      "name": "OwnableUnauthorizedAccount",
      "type": "error"
    },
    {
      "anonymous": false,
      "inputs": [
        {
          "indexed": true,
          "internalType": "address",
          "name": "owner",
          "type": "address"
        },
        {
          "indexed": true,
          "internalType": "address",
          "name": "spender",
          "type": "address"
        },
        {
          "indexed": false,
          "internalType": "uint256",
          "name": "value",
          "type": "uint256"
        }
      ],
      "name": "Approval",
      "type": "event"
    },
    {
      "anonymous": false,
      "inputs": [
        {
          "indexed": false,
          "internalType": "uint64",
          "name": "version",
          "type": "uint64"
        }
      ],
      "name": "Initialized",
      "type": "event"
    },
    {
      "anonymous": false,
      "inputs": [
        {
          "indexed": true,
          "internalType": "address",
          "name": "oldMinter",
          "type": "address"
        },
        {
          "indexed": true,
          "internalType": "address",
          "name": "newMinter",
          "type": "address"
        }
      ],
      "name": "MinterUpdated",
      "type": "event"
    },
    {
      "anonymous": false,
      "inputs": [
        {
          "indexed": true,
          "internalType": "address",
          "name": "previousOwner",
          "type": "address"
        },
        {
          "indexed": true,
          "internalType": "address",
          "name": "newOwner",
          "type": "address"
        }
      ],
      "name": "OwnershipTransferred",
      "type": "event"
    },
    {
      "anonymous": false,
      "inputs": [
        {
          "indexed": true,
          "internalType": "address",
          "name": "from",
          "type": "address"
        },
        {
          "indexed": true,
          "internalType": "address",
          "name": "to",
          "type": "address"
        },
        {
          "indexed": false,
          "internalType": "uint256",
          "name": "value",
          "type": "uint256"
        }
      ],
      "name": "Transfer",
      "type": "event"
    },
    {
      "inputs": [],
      "name": "MAX_MINT_PER_TX",
      "outputs": [
        {
          "internalType": "uint256",
          "name": "",
          "type": "uint256"
        }
      ],
      "stateMutability": "view",
      "type": "function"
    },
    {
      "inputs": [
        {
          "internalType": "address",
          "name": "owner",
          "type": "address"
        },
        {
          "internalType": "address",
          "name": "spender",
          "type": "address"
        }
      ],
      "name": "allowance",
      "outputs": [
        {
          "internalType": "uint256",
          "name": "",
          "type": "uint256"
        }
      ],
      "stateMutability": "view",
      "type": "function"
    },
    {
      "inputs": [
        {
          "internalType": "address",
          "name": "spender",
          "type": "address"
        },
        {
          "internalType": "uint256",
          "name": "value",
          "type": "uint256"
        }
      ],
      "name": "approve",
      "outputs": [
        {
          "internalType": "bool",
          "name": "",
          "type": "bool"
        }
      ],
      "stateMutability": "nonpayable",
      "type": "function"
    },
    {
      "inputs": [
        {
          "internalType": "address",
          "name": "account",
          "type": "address"
        }
      ],
      "name": "balanceOf",
      "outputs": [
        {
          "internalType": "uint256",
          "name": "",
          "type": "uint256"
        }
      ],
      "stateMutability": "view",
      "type": "function"
    },
    {
      "inputs": [
        {
          "internalType": "uint256",
          "name": "value",
          "type": "uint256"
        }
      ],
      "name": "burn",
      "outputs": [],
      "stateMutability": "nonpayable",
      "type": "function"
    },
    {
      "inputs": [
        {
          "internalType": "address",
          "name": "account",
          "type": "address"
        },
        {
          "internalType": "uint256",
          "name": "amount",
          "type": "uint256"
        }
      ],
      "name": "burnFrom",
      "outputs": [],
      "stateMutability": "nonpayable",
      "type": "function"
    },
    {
      "inputs": [],
      "name": "decimals",
      "outputs": [
        {
          "internalType": "uint8",
          "name": "",
          "type": "uint8"
        }
      ],
      "stateMutability": "pure",
      "type": "function"
    },
    {
      "inputs": [
        {
          "internalType": "address",
          "name": "_minter",
          "type": "address"
        }
      ],
      "name": "initialize",
      "outputs": [],
      "stateMutability": "nonpayable",
      "type": "function"
    },
    {
      "inputs": [
        {
          "internalType": "address",
          "name": "account",
          "type": "address"
        }
      ],
      "name": "isMinter",
      "outputs": [
        {
          "internalType": "bool",
          "name": "",
          "type": "bool"
        }
      ],
      "stateMutability": "view",
      "type": "function"
    },
    {
      "inputs": [],
      "name": "metadata",
      "outputs": [
        {
          "internalType": "string",
          "name": "name",
          "type": "string"
        },
        {
          "internalType": "string",
          "name": "symbol",
          "type": "string"
        },
        {
          "internalType": "string",
          "name": "ver",
          "type": "string"
        }
      ],
      "stateMutability": "pure",
      "type": "function"
    },
    {
      "inputs": [
        {
          "internalType": "address",
          "name": "to",
          "type": "address"
        },
        {
          "internalType": "uint256",
          "name": "amount",
          "type": "uint256"
        }
      ],
      "name": "mint",
      "outputs": [],
      "stateMutability": "nonpayable",
      "type": "function"
    },
    {
      "inputs": [],
      "name": "minter",
      "outputs": [
        {
          "internalType": "address",
          "name": "",
          "type": "address"
        }
      ],
      "stateMutability": "view",
      "type": "function"
    },
    {
      "inputs": [],
      "name": "name",
      "outputs": [
        {
          "internalType": "string",
          "name": "",
          "type": "string"
        }
      ],
      "stateMutability": "view",
      "type": "function"
    },
    {
      "inputs": [],
      "name": "owner",
      "outputs": [
        {
          "internalType": "address",
          "name": "",
          "type": "address"
        }
      ],
      "stateMutability": "view",
      "type": "function"
    },
    {
      "inputs": [],
      "name": "renounceMinter",
      "outputs": [],
      "stateMutability": "nonpayable",
      "type": "function"
    },
    {
      "inputs": [],
      "name": "renounceOwnership",
      "outputs": [],
      "stateMutability": "nonpayable",
      "type": "function"
    },
    {
      "inputs": [],
      "name": "symbol",
      "outputs": [
        {
          "internalType": "string",
          "name": "",
          "type": "string"
        }
      ],
      "stateMutability": "view",
      "type": "function"
    },
    {
      "inputs": [],
      "name": "totalMinted",
      "outputs": [
        {
          "internalType": "uint256",
          "name": "",
          "type": "uint256"
        }
      ],
      "stateMutability": "view",
      "type": "function"
    },
    {
      "inputs": [],
      "name": "totalSupply",
      "outputs": [
        {
          "internalType": "uint256",
          "name": "",
          "type": "uint256"
        }
      ],
      "stateMutability": "view",
      "type": "function"
    },
    {
      "inputs": [
        {
          "internalType": "address",
          "name": "to",
          "type": "address"
        },
        {
          "internalType": "uint256",
          "name": "value",
          "type": "uint256"
        }
      ],
      "name": "transfer",
      "outputs": [
        {
          "internalType": "bool",
          "name": "",
          "type": "bool"
        }
      ],
      "stateMutability": "nonpayable",
      "type": "function"
    },
    {
      "inputs": [
        {
          "internalType": "address",
          "name": "from",
          "type": "address"
        },
        {
          "internalType": "address",
          "name": "to",
          "type": "address"
        },
        {
          "internalType": "uint256",
          "name": "value",
          "type": "uint256"
        }
      ],
      "name": "transferFrom",
      "outputs": [
        {
          "internalType": "bool",
          "name": "",
          "type": "bool"
        }
      ],
      "stateMutability": "nonpayable",
      "type": "function"
    },
    {
      "inputs": [
        {
          "internalType": "address",
          "name": "newOwner",
          "type": "address"
        }
      ],
      "name": "transferOwnership",
      "outputs": [],
      "stateMutability": "nonpayable",
      "type": "function"
    },
    {
      "inputs": [
        {
          "internalType": "address",
          "name": "_newMinter",
          "type": "address"
        }
      ],
      "name": "updateMinter",
      "outputs": [],
      "stateMutability": "nonpayable",
      "type": "function"
    },
    {
      "inputs": [],
      "name": "version",
      "outputs": [
        {
          "internalType": "string",
          "name": "",
          "type": "string"
        }
      ],
      "stateMutability": "pure",
      "type": "function"
    }
  ],
  "bytecode": "0x6080604052348015600f57600080fd5b506121858061001f6000396000f3fe608060405234801561001057600080fd5b50600436106101585760003560e01c8063715018a6116100c3578063a2309ff81161007c578063a2309ff814610381578063a9059cbb1461039f578063aa271e1a146103cf578063c4d66de8146103ff578063dd62ed3e1461041b578063f2fde38b1461044b57610158565b8063715018a6146102f757806379cc6790146103015780638da5cb5b1461031d5780638ecad7211461033b57806395d89b4114610359578063986502751461037757610158565b8063392f37e911610115578063392f37e91461023557806340c10f191461025557806342966c68146102715780634eb03f6e1461028d57806354fd4d50146102a957806370a08231146102c757610158565b806306fdde031461015d578063075461721461017b578063095ea7b31461019957806318160ddd146101c957806323b872dd146101e7578063313ce56714610217575b600080fd5b610165610467565b6040516101729190611925565b60405180910390f35b610183610508565b6040516101909190611988565b60405180910390f35b6101b360048036038101906101ae9190611a0a565b61052c565b6040516101c09190611a65565b60405180910390f35b6101d161054f565b6040516101de9190611a8f565b60405180910390f35b61020160048036038101906101fc9190611aaa565b610567565b60405161020e9190611a65565b60405180910390f35b61021f610596565b60405161022c9190611b19565b60405180910390f35b61023d61059f565b60405161024c93929190611b34565b60405180910390f35b61026f600480360381019061026a9190611a0a565b610651565b005b61028b60048036038101906102869190611b80565b610753565b005b6102a760048036038101906102a29190611bad565b610767565b005b6102b161082c565b6040516102be9190611925565b60405180910390f35b6102e160048036038101906102dc9190611bad565b610869565b6040516102ee9190611a8f565b60405180910390f35b6102ff6108c0565b005b61031b60048036038101906103169190611a0a565b6108d4565b005b6103256108e2565b6040516103329190611988565b60405180910390f35b61034361091a565b6040516103509190611a8f565b60405180910390f35b610361610928565b60405161036e9190611925565b60405180910390f35b61037f6109c9565b005b610389610a8f565b6040516103969190611a8f565b60405180910390f35b6103b960048036038101906103b49190611a0a565b610a95565b6040516103c69190611a65565b60405180910390f35b6103e960048036038101906103e49190611bad565b610ab8565b6040516103f69190611a65565b60405180910390f35b61041960048036038101906104149190611bad565b610b11565b005b61043560048036038101906104309190611bda565b610d54565b6040516104429190611a8f565b60405180910390f35b61046560048036038101906104609190611bad565b610de9565b005b60606000610473610e6f565b905080600301805461048490611c49565b80601f01602080910402602001604051908101604052809291908181526020018280546104b090611c49565b80156104fd5780601f106104d2576101008083540402835291602001916104fd565b820191906000526020600020905b8154815290600101906020018083116104e057829003601f168201915b505050505091505090565b60008054906101000a900473ffffffffffffffffffffffffffffffffffffffff1681565b600080610537610e97565b9050610544818585610e9f565b600191505092915050565b60008061055a610e6f565b9050806002015491505090565b600080610572610e97565b905061057f858285610eb1565b61058a858585610f46565b60019150509392505050565b60006012905090565b60608060606040518060400160405280600981526020017f4d6f6f20546f6b656e00000000000000000000000000000000000000000000008152506040518060400160405280600381526020017f4d4f4f00000000000000000000000000000000000000000000000000000000008152506040518060400160405280600481526020017f76312e3000000000000000000000000000000000000000000000000000000000815250925092509250909192565b60008054906101000a900473ffffffffffffffffffffffffffffffffffffffff1673ffffffffffffffffffffffffffffffffffffffff163373ffffffffffffffffffffffffffffffffffffffff16146106df576040517f08c379a00000000000000000000000000000000000000000000000000000000081526004016106d690611cec565b60405180910390fd5b69152d02c7e14af680000081111561072c576040517f08c379a000000000000000000000000000000000000000000000000000000000815260040161072390611d7e565b60405180910390fd5b610736828261103a565b80600160008282546107489190611dcd565b925050819055505050565b61076461075e610e97565b826110bc565b50565b61076f61113e565b8073ffffffffffffffffffffffffffffffffffffffff1660008054906101000a900473ffffffffffffffffffffffffffffffffffffffff1673ffffffffffffffffffffffffffffffffffffffff167f1cf2de25c5bf439ac0287061c3a0fa69b3b02867d0ccfd2ded34e42577050b7360405160405180910390a3806000806101000a81548173ffffffffffffffffffffffffffffffffffffffff021916908373ffffffffffffffffffffffffffffffffffffffff16021790555050565b60606040518060400160405280600d81526020017f4d6f6f546f6b656e2076312e3000000000000000000000000000000000000000815250905090565b600080610874610e6f565b90508060000160008473ffffffffffffffffffffffffffffffffffffffff1673ffffffffffffffffffffffffffffffffffffffff16815260200190815260200160002054915050919050565b6108c861113e565b6108d260006111c5565b565b6108de828261129c565b5050565b6000806108ed6112bc565b90508060000160009054906101000a900473ffffffffffffffffffffffffffffffffffffffff1691505090565b69152d02c7e14af680000081565b60606000610934610e6f565b905080600401805461094590611c49565b80601f016020809104026020016040519081016040528092919081815260200182805461097190611c49565b80156109be5780601f10610993576101008083540402835291602001916109be565b820191906000526020600020905b8154815290600101906020018083116109a157829003601f168201915b505050505091505090565b6109d161113e565b600073ffffffffffffffffffffffffffffffffffffffff1660008054906101000a900473ffffffffffffffffffffffffffffffffffffffff1673ffffffffffffffffffffffffffffffffffffffff167f1cf2de25c5bf439ac0287061c3a0fa69b3b02867d0ccfd2ded34e42577050b7360405160405180910390a360008060006101000a81548173ffffffffffffffffffffffffffffffffffffffff021916908373ffffffffffffffffffffffffffffffffffffffff160217905550565b60015481565b600080610aa0610e97565b9050610aad818585610f46565b600191505092915050565b60008060009054906101000a900473ffffffffffffffffffffffffffffffffffffffff1673ffffffffffffffffffffffffffffffffffffffff168273ffffffffffffffffffffffffffffffffffffffff16149050919050565b6000610b1b6112e4565b905060008160000160089054906101000a900460ff1615905060008260000160009054906101000a900467ffffffffffffffff1690506000808267ffffffffffffffff16148015610b695750825b9050600060018367ffffffffffffffff16148015610b9e575060003073ffffffffffffffffffffffffffffffffffffffff163b145b905081158015610bac575080155b15610be3576040517ff92ee8a900000000000000000000000000000000000000000000000000000000815260040160405180910390fd5b60018560000160006101000a81548167ffffffffffffffff021916908367ffffffffffffffff1602179055508315610c335760018560000160086101000a81548160ff0219169083151502179055505b610ca76040518060400160405280600981526020017f4d6f6f20546f6b656e00000000000000000000000000000000000000000000008152506040518060400160405280600381526020017f4d4f4f00000000000000000000000000000000000000000000000000000000008152506112f8565b610cb03361130e565b856000806101000a81548173ffffffffffffffffffffffffffffffffffffffff021916908373ffffffffffffffffffffffffffffffffffffffff1602179055508315610d4c5760008560000160086101000a81548160ff0219169083151502179055507fc7f505b2f371ae2175ee4913f4499e1f2633a7b5936321eed1cdaeb6115181d26001604051610d439190611e5a565b60405180910390a15b505050505050565b600080610d5f610e6f565b90508060010160008573ffffffffffffffffffffffffffffffffffffffff1673ffffffffffffffffffffffffffffffffffffffff16815260200190815260200160002060008473ffffffffffffffffffffffffffffffffffffffff1673ffffffffffffffffffffffffffffffffffffffff1681526020019081526020016000205491505092915050565b610df161113e565b600073ffffffffffffffffffffffffffffffffffffffff168173ffffffffffffffffffffffffffffffffffffffff1603610e635760006040517f1e4fbdf7000000000000000000000000000000000000000000000000000000008152600401610e5a9190611988565b60405180910390fd5b610e6c816111c5565b50565b60007f52c63247e1f47db19d5ce0460030c497f067ca4cebf71ba98eeadabe20bace00905090565b600033905090565b610eac8383836001611322565b505050565b6000610ebd8484610d54565b90507fffffffffffffffffffffffffffffffffffffffffffffffffffffffffffffffff811015610f405781811015610f30578281836040517ffb8f41b2000000000000000000000000000000000000000000000000000000008152600401610f2793929190611e75565b60405180910390fd5b610f3f84848484036000611322565b5b50505050565b600073ffffffffffffffffffffffffffffffffffffffff168373ffffffffffffffffffffffffffffffffffffffff1603610fb85760006040517f96c6fd1e000000000000000000000000000000000000000000000000000000008152600401610faf9190611988565b60405180910390fd5b600073ffffffffffffffffffffffffffffffffffffffff168273ffffffffffffffffffffffffffffffffffffffff160361102a5760006040517fec442f050000000000000000000000000000000000000000000000000000000081526004016110219190611988565b60405180910390fd5b611035838383611508565b505050565b600073ffffffffffffffffffffffffffffffffffffffff168273ffffffffffffffffffffffffffffffffffffffff16036110ac5760006040517fec442f050000000000000000000000000000000000000000000000000000000081526004016110a39190611988565b60405180910390fd5b6110b860008383611508565b5050565b600073ffffffffffffffffffffffffffffffffffffffff168273ffffffffffffffffffffffffffffffffffffffff160361112e5760006040517f96c6fd1e0000000000000000000000000000000000000000000000000000000081526004016111259190611988565b60405180910390fd5b61113a82600083611508565b5050565b611146610e97565b73ffffffffffffffffffffffffffffffffffffffff166111646108e2565b73ffffffffffffffffffffffffffffffffffffffff16146111c357611187610e97565b6040517f118cdaa70000000000000000000000000000000000000000000000000000000081526004016111ba9190611988565b60405180910390fd5b565b60006111cf6112bc565b905060008160000160009054906101000a900473ffffffffffffffffffffffffffffffffffffffff169050828260000160006101000a81548173ffffffffffffffffffffffffffffffffffffffff021916908373ffffffffffffffffffffffffffffffffffffffff1602179055508273ffffffffffffffffffffffffffffffffffffffff168173ffffffffffffffffffffffffffffffffffffffff167f8be0079c531659141344cd1fd0a4f28419497f9722a3daafe3b4186f6b6457e060405160405180910390a3505050565b6112ae826112a8610e97565b83610eb1565b6112b882826110bc565b5050565b60007f9016d09d72d40fdae2fd8ceac6b6234c7706214fd39c1cd1e609a0528c199300905090565b6000806112ef611747565b90508091505090565b611300611772565b61130a82826117b2565b5050565b611316611772565b61131f816117ef565b50565b600061132c610e6f565b9050600073ffffffffffffffffffffffffffffffffffffffff168573ffffffffffffffffffffffffffffffffffffffff16036113a05760006040517fe602df050000000000000000000000000000000000000000000000000000000081526004016113979190611988565b60405180910390fd5b600073ffffffffffffffffffffffffffffffffffffffff168473ffffffffffffffffffffffffffffffffffffffff16036114125760006040517f94280d620000000000000000000000000000000000000000000000000000000081526004016114099190611988565b60405180910390fd5b828160010160008773ffffffffffffffffffffffffffffffffffffffff1673ffffffffffffffffffffffffffffffffffffffff16815260200190815260200160002060008673ffffffffffffffffffffffffffffffffffffffff1673ffffffffffffffffffffffffffffffffffffffff168152602001908152602001600020819055508115611501578373ffffffffffffffffffffffffffffffffffffffff168573ffffffffffffffffffffffffffffffffffffffff167f8c5be1e5ebec7d5bd14f71427d1e84f3dd0314c0f7b2291e5b200ac8c7c3b925856040516114f89190611a8f565b60405180910390a35b5050505050565b6000611512610e6f565b9050600073ffffffffffffffffffffffffffffffffffffffff168473ffffffffffffffffffffffffffffffffffffffff1603611568578181600201600082825461155c9190611dcd565b92505081905550611641565b60008160000160008673ffffffffffffffffffffffffffffffffffffffff1673ffffffffffffffffffffffffffffffffffffffff168152602001908152602001600020549050828110156115f7578481846040517fe450d38c0000000000000000000000000000000000000000000000000000000081526004016115ee93929190611e75565b60405180910390fd5b8281038260000160008773ffffffffffffffffffffffffffffffffffffffff1673ffffffffffffffffffffffffffffffffffffffff16815260200190815260200160002081905550505b600073ffffffffffffffffffffffffffffffffffffffff168373ffffffffffffffffffffffffffffffffffffffff160361168c578181600201600082825403925050819055506116dc565b818160000160008573ffffffffffffffffffffffffffffffffffffffff1673ffffffffffffffffffffffffffffffffffffffff168152602001908152602001600020600082825401925050819055505b8273ffffffffffffffffffffffffffffffffffffffff168473ffffffffffffffffffffffffffffffffffffffff167fddf252ad1be2c89b69c2b068fc378daa952ba7f163c4a11628f55a4df523b3ef846040516117399190611a8f565b60405180910390a350505050565b60007ff0c57e16840df040f15088dc2f81fe391c3923bec73e23a9662efc9c229c6a0060001b905090565b61177a611875565b6117b0576040517fd7e6bcf800000000000000000000000000000000000000000000000000000000815260040160405180910390fd5b565b6117ba611772565b60006117c4610e6f565b9050828160030190816117d7919061207d565b50818160040190816117e9919061207d565b50505050565b6117f7611772565b600073ffffffffffffffffffffffffffffffffffffffff168173ffffffffffffffffffffffffffffffffffffffff16036118695760006040517f1e4fbdf70000000000000000000000000000000000000000000000000000000081526004016118609190611988565b60405180910390fd5b611872816111c5565b50565b600061187f6112e4565b60000160089054906101000a900460ff16905090565b600081519050919050565b600082825260208201905092915050565b60005b838110156118cf5780820151818401526020810190506118b4565b60008484015250505050565b6000601f19601f8301169050919050565b60006118f782611895565b61190181856118a0565b93506119118185602086016118b1565b61191a816118db565b840191505092915050565b6000602082019050818103600083015261193f81846118ec565b905092915050565b600073ffffffffffffffffffffffffffffffffffffffff82169050919050565b600061197282611947565b9050919050565b61198281611967565b82525050565b600060208201905061199d6000830184611979565b92915050565b600080fd5b6119b181611967565b81146119bc57600080fd5b50565b6000813590506119ce816119a8565b92915050565b6000819050919050565b6119e7816119d4565b81146119f257600080fd5b50565b600081359050611a04816119de565b92915050565b60008060408385031215611a2157611a206119a3565b5b6000611a2f858286016119bf565b9250506020611a40858286016119f5565b9150509250929050565b60008115159050919050565b611a5f81611a4a565b82525050565b6000602082019050611a7a6000830184611a56565b92915050565b611a89816119d4565b82525050565b6000602082019050611aa46000830184611a80565b92915050565b600080600060608486031215611ac357611ac26119a3565b5b6000611ad1868287016119bf565b9350506020611ae2868287016119bf565b9250506040611af3868287016119f5565b9150509250925092565b600060ff82169050919050565b611b1381611afd565b82525050565b6000602082019050611b2e6000830184611b0a565b92915050565b60006060820190508181036000830152611b4e81866118ec565b90508181036020830152611b6281856118ec565b90508181036040830152611b7681846118ec565b9050949350505050565b600060208284031215611b9657611b956119a3565b5b6000611ba4848285016119f5565b91505092915050565b600060208284031215611bc357611bc26119a3565b5b6000611bd1848285016119bf565b91505092915050565b60008060408385031215611bf157611bf06119a3565b5b6000611bff858286016119bf565b9250506020611c10858286016119bf565b9150509250929050565b7f4e487b7100000000000000000000000000000000000000000000000000000000600052602260045260246000fd5b60006002820490506001821680611c6157607f821691505b602082108103611c7457611c73611c1a565b5b50919050565b7f4d6f6f546f6b656e3a2063616c6c6572206973206e6f7420746865206d696e7460008201527f6572000000000000000000000000000000000000000000000000000000000000602082015250565b6000611cd66022836118a0565b9150611ce182611c7a565b604082019050919050565b60006020820190508181036000830152611d0581611cc9565b9050919050565b7f4d6f6f546f6b656e3a2065786365656473206d6178206d696e7420706572207460008201527f7800000000000000000000000000000000000000000000000000000000000000602082015250565b6000611d686021836118a0565b9150611d7382611d0c565b604082019050919050565b60006020820190508181036000830152611d9781611d5b565b9050919050565b7f4e487b7100000000000000000000000000000000000000000000000000000000600052601160045260246000fd5b6000611dd8826119d4565b9150611de3836119d4565b9250828201905080821115611dfb57611dfa611d9e565b5b92915050565b6000819050919050565b600067ffffffffffffffff82169050919050565b6000819050919050565b6000611e44611e3f611e3a84611e01565b611e1f565b611e0b565b9050919050565b611e5481611e29565b82525050565b6000602082019050611e6f6000830184611e4b565b92915050565b6000606082019050611e8a6000830186611979565b611e976020830185611a80565b611ea46040830184611a80565b949350505050565b7f4e487b7100000000000000000000000000000000000000000000000000000000600052604160045260246000fd5b60008190508160005260206000209050919050565b60006020601f8301049050919050565b600082821b905092915050565b600060088302611f3d7fffffffffffffffffffffffffffffffffffffffffffffffffffffffffffffffff82611f00565b611f478683611f00565b95508019841693508086168417925050509392505050565b6000611f7a611f75611f70846119d4565b611e1f565b6119d4565b9050919050565b6000819050919050565b611f9483611f5f565b611fa8611fa082611f81565b848454611f0d565b825550505050565b600090565b611fbd611fb0565b611fc8818484611f8b565b505050565b5b81811015611fec57611fe1600082611fb5565b600181019050611fce565b5050565b601f8211156120315761200281611edb565b61200b84611ef0565b8101602085101561201a578190505b61202e61202685611ef0565b830182611fcd565b50505b505050565b600082821c905092915050565b600061205460001984600802612036565b1980831691505092915050565b600061206d8383612043565b9150826002028217905092915050565b61208682611895565b67ffffffffffffffff81111561209f5761209e611eac565b5b6120a98254611c49565b6120b4828285611ff0565b600060209050601f8311600181146120e757600084156120d5578287015190505b6120df8582612061565b865550612147565b601f1984166120f586611edb565b60005b8281101561211d578489015182556001820191506020850194506020810190506120f8565b8683101561213a5784890151612136601f891682612043565b8355505b6001600288020188555050505b50505050505056fea26469706673582212209a2fc1c3f9a85ab19b7320dbe7da64ed59fba898449b60d92f8b4373e77f732364736f6c634300081a0033",
  "linkReferences": {},
  "deployedLinkReferences": {}
}