{
  "_format": "hh-sol-artifact-1",
  "contractName": "DengDefenseTowers",
  "sourceName": "contracts/DengDefenseTowers.sol",
  "abi": [
    {
      "inputs": [
        {
          "internalType": "address",
          "name": "target",
          "type": "address"
        }
      ],
      "name": "AddressEmptyCode",
      "type": "error"
    },
    {
      "inputs": [
        {
          "internalType": "address",
          "name": "implementation",
          "type": "address"
        }
      ],
      "name": "ERC1967InvalidImplementation",
      "type": "error"
    },
    {
      "inputs": [],
      "name": "ERC1967NonPayable",
      "type": "error"
    },
    {
      "inputs": [
        {
          "internalType": "address",
          "name": "owner",
          "type": "address"
        }
      ],
      "name": "getOwnedTowers",
      "outputs": [
        {
          "internalType": "uint256[]",
          "name": "",
          "type": "uint256[]"
        }
      ],
      "stateMutability": "view",
      "type": "function"
    },
    {
      "inputs": [
        {
          "internalType": "uint256",
          "name": "tokenId",
          "type": "uint256"
        }
      ],
      "name": "getTowerLevel",
      "outputs": [
        {
          "internalType": "uint256",
          "name": "",
          "type": "uint256"
        }
      ],
      "stateMutability": "view",
      "type": "function"
    },
    {
      "inputs": [
        {
          "internalType": "address",
          "name": "sender",
          "type": "address"
        },
        {
          "internalType": "uint256",
          "name": "tokenId",
          "type": "uint256"
        },
        {
          "internalType": "address",
          "name": "owner",
          "type": "address"
        }
      ],
      "name": "ERC721IncorrectOwner",
      "type": "error"
    },
    {
      "inputs": [
        {
          "internalType": "address",
          "name": "operator",
          "type": "address"
        },
        {
          "internalType": "uint256",
          "name": "tokenId",
          "type": "uint256"
        }
      ],
      "name": "ERC721InsufficientApproval",
      "type": "error"
    },
    {
      "inputs": [
        {
          "internalType": "address",
          "name": "approver",
          "type": "address"
        }
      ],
      "name": "ERC721InvalidApprover",
      "type": "error"
    },
    {
      "inputs": [
        {
          "internalType": "address",
          "name": "operator",
          "type": "address"
        }
      ],
      "name": "ERC721InvalidOperator",
      "type": "error"
    },
    {
      "inputs": [
        {
          "internalType": "address",
          "name": "owner",
          "type": "address"
        }
      ],
      "name": "ERC721InvalidOwner",
      "type": "error"
    },
    {
      "inputs": [
        {
          "internalType": "address",
          "name": "receiver",
          "type": "address"
        }
      ],
      "name": "ERC721InvalidReceiver",
      "type": "error"
    },
    {
      "inputs": [
        {
          "internalType": "address",
          "name": "sender",
          "type": "address"
        }
      ],
      "name": "ERC721InvalidSender",
      "type": "error"
    },
    {
      "inputs": [
        {
          "internalType": "uint256",
          "name": "tokenId",
          "type": "uint256"
        }
      ],
      "name": "ERC721NonexistentToken",
      "type": "error"
    },
    {
      "inputs": [],
      "name": "FailedCall",
      "type": "error"
    },
    {
      "inputs": [],
      "name": "InvalidInitialization",
      "type": "error"
    },
    {
      "inputs": [],
      "name": "NotInitializing",
      "type": "error"
    },
    {
      "inputs": [
        {
          "internalType": "address",
          "name": "owner",
          "type": "address"
        }
      ],
      "name": "OwnableInvalidOwner",
      "type": "error"
    },
    {
      "inputs": [
        {
          "internalType": "address",
          "name": "account",
          "type": "address"
        }
      ],
      "name": "OwnableUnauthorizedAccount",
      "type": "error"
    },
    {
      "inputs": [],
      "name": "Soulbound",
      "type": "error"
    },
    {
      "inputs": [],
      "name": "UUPSUnauthorizedCallContext",
      "type": "error"
    },
    {
      "inputs": [
        {
          "internalType": "bytes32",
          "name": "slot",
          "type": "bytes32"
        }
      ],
      "name": "UUPSUnsupportedProxiableUUID",
      "type": "error"
    },
    {
      "anonymous": false,
      "inputs": [
        {
          "indexed": true,
          "internalType": "address",
          "name": "owner",
          "type": "address"
        },
        {
          "indexed": true,
          "internalType": "address",
          "name": "approved",
          "type": "address"
        },
        {
          "indexed": true,
          "internalType": "uint256",
          "name": "tokenId",
          "type": "uint256"
        }
      ],
      "name": "Approval",
      "type": "event"
    },
    {
      "anonymous": false,
      "inputs": [
        {
          "indexed": true,
          "internalType": "address",
          "name": "owner",
          "type": "address"
        },
        {
          "indexed": true,
          "internalType": "address",
          "name": "operator",
          "type": "address"
        },
        {
          "indexed": false,
          "internalType": "bool",
          "name": "approved",
          "type": "bool"
        }
      ],
      "name": "ApprovalForAll",
      "type": "event"
    },
    {
      "anonymous": false,
      "inputs": [
        {
          "indexed": false,
          "internalType": "uint64",
          "name": "version",
          "type": "uint64"
        }
      ],
      "name": "Initialized",
      "type": "event"
    },
    {
      "anonymous": false,
      "inputs": [
        {
          "indexed": true,
          "internalType": "address",
          "name": "previousOwner",
          "type": "address"
        },
        {
          "indexed": true,
          "internalType": "address",
          "name": "newOwner",
          "type": "address"
        }
      ],
      "name": "OwnershipTransferred",
      "type": "event"
    },
    {
      "anonymous": false,
      "inputs": [
        {
          "indexed": true,
          "internalType": "address",
          "name": "player",
          "type": "address"
        },
        {
          "indexed": false,
          "internalType": "uint256[3]",
          "name": "tokenIds",
          "type": "uint256[3]"
        }
      ],
      "name": "StarterTowersMinted",
      "type": "event"
    },
    {
      "anonymous": false,
      "inputs": [
        {
          "indexed": true,
          "internalType": "uint256",
          "name": "tokenId",
          "type": "uint256"
        },
        {
          "components": [
            {
              "internalType": "uint16",
              "name": "level",
              "type": "uint16"
            },
            {
              "internalType": "uint32",
              "name": "damage",
              "type": "uint32"
            },
            {
              "internalType": "uint32",
              "name": "range",
              "type": "uint32"
            },
            {
              "internalType": "uint32",
              "name": "fireRate",
              "type": "uint32"
            },
            {
              "internalType": "uint8",
              "name": "towerType",
              "type": "uint8"
            }
          ],
          "indexed": false,
          "internalType": "struct DengDefenseTowers.TowerStats",
          "name": "newStats",
          "type": "tuple"
        }
      ],
      "name": "TowerUpgraded",
      "type": "event"
    },
    {
      "anonymous": false,
      "inputs": [
        {
          "indexed": true,
          "internalType": "address",
          "name": "from",
          "type": "address"
        },
        {
          "indexed": true,
          "internalType": "address",
          "name": "to",
          "type": "address"
        },
        {
          "indexed": true,
          "internalType": "uint256",
          "name": "tokenId",
          "type": "uint256"
        }
      ],
      "name": "Transfer",
      "type": "event"
    },
    {
      "anonymous": false,
      "inputs": [
        {
          "indexed": true,
          "internalType": "address",
          "name": "implementation",
          "type": "address"
        }
      ],
      "name": "Upgraded",
      "type": "event"
    },
    {
      "inputs": [],
      "name": "UPGRADE_INTERFACE_VERSION",
      "outputs": [
        {
          "internalType": "string",
          "name": "",
          "type": "string"
        }
      ],
      "stateMutability": "view",
      "type": "function"
    },
    {
      "inputs": [
        {
          "internalType": "uint256",
          "name": "tokenId",
          "type": "uint256"
        }
      ],
      "name": "adminBurn",
      "outputs": [],
      "stateMutability": "nonpayable",
      "type": "function"
    },
    {
      "inputs": [
        {
          "internalType": "uint256",
          "name": "tokenId",
          "type": "uint256"
        },
        {
          "components": [
            {
              "internalType": "uint16",
              "name": "level",
              "type": "uint16"
            },
            {
              "internalType": "uint32",
              "name": "damage",
              "type": "uint32"
            },
            {
              "internalType": "uint32",
              "name": "range",
              "type": "uint32"
            },
            {
              "internalType": "uint32",
              "name": "fireRate",
              "type": "uint32"
            },
            {
              "internalType": "uint8",
              "name": "towerType",
              "type": "uint8"
            }
          ],
          "internalType": "struct DengDefenseTowers.TowerStats",
          "name": "newStats",
          "type": "tuple"
        }
      ],
      "name": "adminUpgradeTower",
      "outputs": [],
      "stateMutability": "nonpayable",
      "type": "function"
    },
    {
      "inputs": [
        {
          "internalType": "address",
          "name": "",
          "type": "address"
        },
        {
          "internalType": "uint256",
          "name": "",
          "type": "uint256"
        }
      ],
      "name": "approve",
      "outputs": [],
      "stateMutability": "pure",
      "type": "function"
    },
    {
      "inputs": [
        {
          "internalType": "address",
          "name": "owner",
          "type": "address"
        }
      ],
      "name": "balanceOf",
      "outputs": [
        {
          "internalType": "uint256",
          "name": "",
          "type": "uint256"
        }
      ],
      "stateMutability": "view",
      "type": "function"
    },
    {
      "inputs": [
        {
          "internalType": "uint256",
          "name": "",
          "type": "uint256"
        }
      ],
      "name": "getApproved",
      "outputs": [
        {
          "internalType": "address",
          "name": "",
          "type": "address"
        }
      ],
      "stateMutability": "pure",
      "type": "function"
    },
    {
      "inputs": [
        {
          "internalType": "uint256",
          "name": "tokenId",
          "type": "uint256"
        }
      ],
      "name": "getTower",
      "outputs": [
        {
          "components": [
            {
              "internalType": "uint16",
              "name": "level",
              "type": "uint16"
            },
            {
              "internalType": "uint32",
              "name": "damage",
              "type": "uint32"
            },
            {
              "internalType": "uint32",
              "name": "range",
              "type": "uint32"
            },
            {
              "internalType": "uint32",
              "name": "fireRate",
              "type": "uint32"
            },
            {
              "internalType": "uint8",
              "name": "towerType",
              "type": "uint8"
            }
          ],
          "internalType": "struct DengDefenseTowers.TowerStats",
          "name": "",
          "type": "tuple"
        }
      ],
      "stateMutability": "view",
      "type": "function"
    },
    {
      "inputs": [
        {
          "internalType": "string",
          "name": "name_",
          "type": "string"
        },
        {
          "internalType": "string",
          "name": "symbol_",
          "type": "string"
        },
        {
          "internalType": "string",
          "name": "baseURI_",
          "type": "string"
        }
      ],
      "name": "initialize",
      "outputs": [],
      "stateMutability": "nonpayable",
      "type": "function"
    },
    {
      "inputs": [
        {
          "internalType": "address",
          "name": "",
          "type": "address"
        },
        {
          "internalType": "address",
          "name": "",
          "type": "address"
        }
      ],
      "name": "isApprovedForAll",
      "outputs": [
        {
          "internalType": "bool",
          "name": "",
          "type": "bool"
        }
      ],
      "stateMutability": "pure",
      "type": "function"
    },
    {
      "inputs": [
        {
          "internalType": "address",
          "name": "to",
          "type": "address"
        }
      ],
      "name": "mintStarterTowers",
      "outputs": [
        {
          "internalType": "uint256[3]",
          "name": "ids",
          "type": "uint256[3]"
        }
      ],
      "stateMutability": "nonpayable",
      "type": "function"
    },
    {
      "inputs": [],
      "name": "name",
      "outputs": [
        {
          "internalType": "string",
          "name": "",
          "type": "string"
        }
      ],
      "stateMutability": "view",
      "type": "function"
    },
    {
      "inputs": [],
      "name": "owner",
      "outputs": [
        {
          "internalType": "address",
          "name": "",
          "type": "address"
        }
      ],
      "stateMutability": "view",
      "type": "function"
    },
    {
      "inputs": [
        {
          "internalType": "uint256",
          "name": "tokenId",
          "type": "uint256"
        }
      ],
      "name": "ownerOf",
      "outputs": [
        {
          "internalType": "address",
          "name": "",
          "type": "address"
        }
      ],
      "stateMutability": "view",
      "type": "function"
    },
    {
      "inputs": [],
      "name": "paused",
      "outputs": [
        {
          "internalType": "bool",
          "name": "",
          "type": "bool"
        }
      ],
      "stateMutability": "view",
      "type": "function"
    },
    {
      "inputs": [],
      "name": "proxiableUUID",
      "outputs": [
        {
          "internalType": "bytes32",
          "name": "",
          "type": "bytes32"
        }
      ],
      "stateMutability": "view",
      "type": "function"
    },
    {
      "inputs": [],
      "name": "renounceOwnership",
      "outputs": [],
      "stateMutability": "nonpayable",
      "type": "function"
    },
    {
      "inputs": [
        {
          "internalType": "address",
          "name": "nftContract",
          "type": "address"
        },
        {
          "internalType": "uint256",
          "name": "tokenId",
          "type": "uint256"
        }
      ],
      "name": "rescue721",
      "outputs": [],
      "stateMutability": "nonpayable",
      "type": "function"
    },
    {
      "inputs": [
        {
          "internalType": "address",
          "name": "token",
          "type": "address"
        }
      ],
      "name": "rescueTokens",
      "outputs": [],
      "stateMutability": "nonpayable",
      "type": "function"
    },
    {
      "inputs": [
        {
          "internalType": "address",
          "name": "from",
          "type": "address"
        },
        {
          "internalType": "address",
          "name": "to",
          "type": "address"
        },
        {
          "internalType": "uint256",
          "name": "tokenId",
          "type": "uint256"
        }
      ],
      "name": "safeTransferFrom",
      "outputs": [],
      "stateMutability": "nonpayable",
      "type": "function"
    },
    {
      "inputs": [
        {
          "internalType": "address",
          "name": "from",
          "type": "address"
        },
        {
          "internalType": "address",
          "name": "to",
          "type": "address"
        },
        {
          "internalType": "uint256",
          "name": "tokenId",
          "type": "uint256"
        },
        {
          "internalType": "bytes",
          "name": "data",
          "type": "bytes"
        }
      ],
      "name": "safeTransferFrom",
      "outputs": [],
      "stateMutability": "nonpayable",
      "type": "function"
    },
    {
      "inputs": [
        {
          "internalType": "address",
          "name": "",
          "type": "address"
        },
        {
          "internalType": "bool",
          "name": "",
          "type": "bool"
        }
      ],
      "name": "setApprovalForAll",
      "outputs": [],
      "stateMutability": "pure",
      "type": "function"
    },
    {
      "inputs": [
        {
          "internalType": "string",
          "name": "newBase",
          "type": "string"
        }
      ],
      "name": "setBaseURI",
      "outputs": [],
      "stateMutability": "nonpayable",
      "type": "function"
    },
    {
      "inputs": [
        {
          "internalType": "bool",
          "name": "p",
          "type": "bool"
        }
      ],
      "name": "setPaused",
      "outputs": [],
      "stateMutability": "nonpayable",
      "type": "function"
    },
    {
      "inputs": [
        {
          "internalType": "address",
          "name": "",
          "type": "address"
        }
      ],
      "name": "starterGranted",
      "outputs": [
        {
          "internalType": "bool",
          "name": "",
          "type": "bool"
        }
      ],
      "stateMutability": "view",
      "type": "function"
    },
    {
      "inputs": [
        {
          "internalType": "bytes4",
          "name": "interfaceId",
          "type": "bytes4"
        }
      ],
      "name": "supportsInterface",
      "outputs": [
        {
          "internalType": "bool",
          "name": "",
          "type": "bool"
        }
      ],
      "stateMutability": "view",
      "type": "function"
    },
    {
      "inputs": [],
      "name": "symbol",
      "outputs": [
        {
          "internalType": "string",
          "name": "",
          "type": "string"
        }
      ],
      "stateMutability": "view",
      "type": "function"
    },
    {
      "inputs": [
        {
          "internalType": "uint256",
          "name": "tokenId",
          "type": "uint256"
        }
      ],
      "name": "tokenURI",
      "outputs": [
        {
          "internalType": "string",
          "name": "",
          "type": "string"
        }
      ],
      "stateMutability": "view",
      "type": "function"
    },
    {
      "inputs": [
        {
          "internalType": "address",
          "name": "from",
          "type": "address"
        },
        {
          "internalType": "address",
          "name": "to",
          "type": "address"
        },
        {
          "internalType": "uint256",
          "name": "tokenId",
          "type": "uint256"
        }
      ],
      "name": "transferFrom",
      "outputs": [],
      "stateMutability": "nonpayable",
      "type": "function"
    },
    {
      "inputs": [
        {
          "internalType": "address",
          "name": "newOwner",
          "type": "address"
        }
      ],
      "name": "transferOwnership",
      "outputs": [],
      "stateMutability": "nonpayable",
      "type": "function"
    },
    {
      "inputs": [
        {
          "internalType": "address",
          "name": "newImplementation",
          "type": "address"
        },
        {
          "internalType": "bytes",
          "name": "data",
          "type": "bytes"
        }
      ],
      "name": "upgradeToAndCall",
      "outputs": [],
      "stateMutability": "payable",
      "type": "function"
    },
    {
      "inputs": [],
      "name": "withdraw",
      "outputs": [],
      "stateMutability": "nonpayable",
      "type": "function"
    }
  ],
  "bytecode": "0x60a06040523073ffffffffffffffffffffffffffffffffffffffff1660809073ffffffffffffffffffffffffffffffffffffffff16815250348015604257600080fd5b5060805161484461006c60003960008181611a1601528181611a6b0152611c2601526148446000f3fe6080604052600436106101d75760003560e01c80636352211e11610102578063a50f1b8211610095578063badb97ff11610064578063badb97ff14610696578063c87b56dd146106bf578063e985e9c5146106fc578063f2fde38b14610739576101d7565b8063a50f1b82146105f0578063a6487c5314610619578063ad3cb1cc14610642578063b88d4fde1461066d576101d7565b80638da5cb5b116100d15780638da5cb5b1461053457806395d89b411461055f578063a22cb4651461058a578063a41a9f0a146105b3576101d7565b80636352211e1461046657806370a08231146104a3578063715018a6146104e05780637ab3c8d9146104f7576101d7565b8063367fe19b1161017a5780634f1ef286116101495780634f1ef286146103cb57806352d1902d146103e757806355f804b3146104125780635c975abb1461043b576101d7565b8063367fe19b146103255780633ccfd60b1461034e57806342842e0e14610365578063455268d11461038e576101d7565b8063081812fc116101b6578063081812fc1461026d578063095ea7b3146102aa57806316c38b3c146102d357806323b872dd146102fc576101d7565b8062ae3bf8146101dc57806301ffc9a71461020557806306fdde0314610242575b600080fd5b3480156101e857600080fd5b5061020360048036038101906101fe9190612fa3565b610762565b005b34801561021157600080fd5b5061022c60048036038101906102279190613028565b61086c565b6040516102399190613070565b60405180910390f35b34801561024e57600080fd5b5061025761094e565b604051610264919061311b565b60405180910390f35b34801561027957600080fd5b50610294600480360381019061028f9190613173565b6109ef565b6040516102a191906131af565b60405180910390f35b3480156102b657600080fd5b506102d160048036038101906102cc91906131ca565b6109f6565b005b3480156102df57600080fd5b506102fa60048036038101906102f59190613236565b610a28565b005b34801561030857600080fd5b50610323600480360381019061031e9190613263565b610a4d565b005b34801561033157600080fd5b5061034c600480360381019061034791906131ca565b610b4f565b005b34801561035a57600080fd5b50610363610bd1565b005b34801561037157600080fd5b5061038c60048036038101906103879190613263565b610c29565b005b34801561039a57600080fd5b506103b560048036038101906103b09190613173565b610c49565b6040516103c29190613376565b60405180910390f35b6103e560048036038101906103e091906134c6565b610d9b565b005b3480156103f357600080fd5b506103fc610dba565b604051610409919061353b565b60405180910390f35b34801561041e57600080fd5b50610439600480360381019061043491906135b6565b610ded565b005b34801561044757600080fd5b50610450610e0b565b60405161045d9190613070565b60405180910390f35b34801561047257600080fd5b5061048d60048036038101906104889190613173565b610e1e565b60405161049a91906131af565b60405180910390f35b3480156104af57600080fd5b506104ca60048036038101906104c59190612fa3565b610e30565b6040516104d79190613612565b60405180910390f35b3480156104ec57600080fd5b506104f5610ef9565b005b34801561050357600080fd5b5061051e60048036038101906105199190612fa3565b610f0d565b60405161052b91906136d8565b60405180910390f35b34801561054057600080fd5b50610549611134565b60405161055691906131af565b60405180910390f35b34801561056b57600080fd5b5061057461116c565b604051610581919061311b565b60405180910390f35b34801561059657600080fd5b506105b160048036038101906105ac91906136f3565b61120d565b005b3480156105bf57600080fd5b506105da60048036038101906105d59190612fa3565b61123f565b6040516105e79190613070565b60405180910390f35b3480156105fc57600080fd5b5061061760048036038101906106129190613757565b61125f565b005b34801561062557600080fd5b50610640600480360381019061063b9190613838565b61133c565b005b34801561064e57600080fd5b50610657611512565b604051610664919061311b565b60405180910390f35b34801561067957600080fd5b50610694600480360381019061068f91906138df565b61154b565b005b3480156106a257600080fd5b506106bd60048036038101906106b89190613173565b611570565b005b3480156106cb57600080fd5b506106e660048036038101906106e19190613173565b611584565b6040516106f3919061311b565b60405180910390f35b34801561070857600080fd5b50610723600480360381019061071e9190613962565b6115ed565b6040516107309190613070565b60405180910390f35b34801561074557600080fd5b50610760600480360381019061075b9190612fa3565b6115f5565b005b61076a61167b565b8073ffffffffffffffffffffffffffffffffffffffff1663a9059cbb61078e611134565b8373ffffffffffffffffffffffffffffffffffffffff166370a08231306040518263ffffffff1660e01b81526004016107c791906131af565b602060405180830381865afa1580156107e4573d6000803e3d6000fd5b505050506040513d601f19601f8201168201806040525081019061080891906139b7565b6040518363ffffffff1660e01b81526004016108259291906139e4565b6020604051808303816000875af1158015610844573d6000803e3d6000fd5b505050506040513d601f19601f820116820180604052508101906108689190613a22565b5050565b60007f80ac58cd000000000000000000000000000000000000000000000000000000007bffffffffffffffffffffffffffffffffffffffffffffffffffffffff1916827bffffffffffffffffffffffffffffffffffffffffffffffffffffffff1916148061093757507f5b5e139f000000000000000000000000000000000000000000000000000000007bffffffffffffffffffffffffffffffffffffffffffffffffffffffff1916827bffffffffffffffffffffffffffffffffffffffffffffffffffffffff1916145b80610947575061094682611702565b5b9050919050565b6060600061095a61176c565b905080600001805461096b90613a7e565b80601f016020809104026020016040519081016040528092919081815260200182805461099790613a7e565b80156109e45780601f106109b9576101008083540402835291602001916109e4565b820191906000526020600020905b8154815290600101906020018083116109c757829003601f168201915b505050505091505090565b6000919050565b6040517fa4420a9500000000000000000000000000000000000000000000000000000000815260040160405180910390fd5b610a3061167b565b80600460006101000a81548160ff02191690831515021790555050565b600073ffffffffffffffffffffffffffffffffffffffff168273ffffffffffffffffffffffffffffffffffffffff1603610abf5760006040517f64a0ae92000000000000000000000000000000000000000000000000000000008152600401610ab691906131af565b60405180910390fd5b6000610ad38383610ace611794565b61179c565b90508373ffffffffffffffffffffffffffffffffffffffff168173ffffffffffffffffffffffffffffffffffffffff1614610b49578382826040517f64283d7b000000000000000000000000000000000000000000000000000000008152600401610b4093929190613aaf565b60405180910390fd5b50505050565b610b5761167b565b8173ffffffffffffffffffffffffffffffffffffffff166323b872dd30610b7c611134565b846040518463ffffffff1660e01b8152600401610b9b93929190613ae6565b600060405180830381600087803b158015610bb557600080fd5b505af1158015610bc9573d6000803e3d6000fd5b505050505050565b610bd961167b565b610be1611134565b73ffffffffffffffffffffffffffffffffffffffff166108fc479081150290604051600060405180830381858888f19350505050158015610c26573d6000803e3d6000fd5b50565b610c448383836040518060200160405280600081525061154b565b505050565b610c51612ec7565b600073ffffffffffffffffffffffffffffffffffffffff16610c72836119c9565b73ffffffffffffffffffffffffffffffffffffffff1603610cc8576040517f08c379a0000000000000000000000000000000000000000000000000000000008152600401610cbf90613b69565b60405180910390fd5b6000808381526020019081526020016000206040518060a00160405290816000820160009054906101000a900461ffff1661ffff1661ffff1681526020016000820160029054906101000a900463ffffffff1663ffffffff1663ffffffff1681526020016000820160069054906101000a900463ffffffff1663ffffffff1663ffffffff16815260200160008201600a9054906101000a900463ffffffff1663ffffffff1663ffffffff16815260200160008201600e9054906101000a900460ff1660ff1660ff16815250509050919050565b610da3611a14565b610dac82611afa565b610db68282611b05565b5050565b6000610dc4611c24565b7f360894a13ba1a3210667c828492db98dca3e2076cc3735a920a3ca505d382bbc60001b905090565b610df561167b565b818160039182610e06929190613d40565b505050565b600460009054906101000a900460ff1681565b6000610e2982611cab565b9050919050565b600080610e3b61176c565b9050600073ffffffffffffffffffffffffffffffffffffffff168373ffffffffffffffffffffffffffffffffffffffff1603610eaf5760006040517f89c62b64000000000000000000000000000000000000000000000000000000008152600401610ea691906131af565b60405180910390fd5b8060030160008473ffffffffffffffffffffffffffffffffffffffff1673ffffffffffffffffffffffffffffffffffffffff16815260200190815260200160002054915050919050565b610f0161167b565b610f0b6000611d33565b565b610f15612f0f565b610f1d61167b565b600460009054906101000a900460ff1615610f6d576040517f08c379a0000000000000000000000000000000000000000000000000000000008152600401610f6490613e5c565b60405180910390fd5b600160008373ffffffffffffffffffffffffffffffffffffffff1673ffffffffffffffffffffffffffffffffffffffff16815260200190815260200160002060009054906101000a900460ff1615610ffa576040517f08c379a0000000000000000000000000000000000000000000000000000000008152600401610ff190613ec8565b60405180910390fd5b60018060008473ffffffffffffffffffffffffffffffffffffffff1673ffffffffffffffffffffffffffffffffffffffff16815260200190815260200160002060006101000a81548160ff0219169083151502179055506110648261105f6000611e0a565b611f11565b8160006003811061107857611077613ee8565b5b6020020181815250506110948261108f6001611e0a565b611f11565b816001600381106110a8576110a7613ee8565b5b6020020181815250506110c4826110bf6002611e0a565b611f11565b816002600381106110d8576110d7613ee8565b5b6020020181815250508173ffffffffffffffffffffffffffffffffffffffff167f49989188f2801bf0efd3a47273c7c521d4642bbcb38833f098192c7c6821f40a8260405161112791906136d8565b60405180910390a2919050565b60008061113f61200b565b90508060000160009054906101000a900473ffffffffffffffffffffffffffffffffffffffff1691505090565b6060600061117861176c565b905080600101805461118990613a7e565b80601f01602080910402602001604051908101604052809291908181526020018280546111b590613a7e565b80156112025780601f106111d757610100808354040283529160200191611202565b820191906000526020600020905b8154815290600101906020018083116111e557829003601f168201915b505050505091505090565b6040517fa4420a9500000000000000000000000000000000000000000000000000000000815260040160405180910390fd5b60016020528060005260406000206000915054906101000a900460ff1681565b61126761167b565b600073ffffffffffffffffffffffffffffffffffffffff16611288836119c9565b73ffffffffffffffffffffffffffffffffffffffff16036112de576040517f08c379a00000000000000000000000000000000000000000000000000000000081526004016112d590613f63565b60405180910390fd5b8060008084815260200190815260200160002081816112fd9190614300565b905050817fb5ca2192f49d1752c816614755671aa16fa2cf9523d81ecee06f175bce86eb58826040516113309190614422565b60405180910390a25050565b6000611346612033565b905060008160000160089054906101000a900460ff1615905060008260000160009054906101000a900467ffffffffffffffff1690506000808267ffffffffffffffff161480156113945750825b9050600060018367ffffffffffffffff161480156113c9575060003073ffffffffffffffffffffffffffffffffffffffff163b145b9050811580156113d7575080155b1561140e576040517ff92ee8a900000000000000000000000000000000000000000000000000000000815260040160405180910390fd5b60018560000160006101000a81548167ffffffffffffffff021916908367ffffffffffffffff160217905550831561145e5760018560000160086101000a81548160ff0219169083151502179055505b6114688888612047565b6114713361205d565b611479612071565b8560039081611488919061443d565b5060016002819055506000600460006101000a81548160ff02191690831515021790555083156115085760008560000160086101000a81548160ff0219169083151502179055507fc7f505b2f371ae2175ee4913f4499e1f2633a7b5936321eed1cdaeb6115181d260016040516114ff919061455e565b60405180910390a15b5050505050505050565b6040518060400160405280600581526020017f352e302e3000000000000000000000000000000000000000000000000000000081525081565b611556848484610a4d565b61156a611561611794565b8585858561207b565b50505050565b61157861167b565b6115818161222c565b50565b606061158f82611cab565b50600061159a6122b2565b905060008151116115ba57604051806020016040528060008152506115e5565b806115c484612344565b6040516020016115d59291906145b5565b6040516020818303038152906040525b915050919050565b600092915050565b6115fd61167b565b600073ffffffffffffffffffffffffffffffffffffffff168173ffffffffffffffffffffffffffffffffffffffff160361166f5760006040517f1e4fbdf700000000000000000000000000000000000000000000000000000000815260040161166691906131af565b60405180910390fd5b61167881611d33565b50565b611683611794565b73ffffffffffffffffffffffffffffffffffffffff166116a1611134565b73ffffffffffffffffffffffffffffffffffffffff1614611700576116c4611794565b6040517f118cdaa70000000000000000000000000000000000000000000000000000000081526004016116f791906131af565b60405180910390fd5b565b60007f01ffc9a7000000000000000000000000000000000000000000000000000000007bffffffffffffffffffffffffffffffffffffffffffffffffffffffff1916827bffffffffffffffffffffffffffffffffffffffffffffffffffffffff1916149050919050565b60007f80bb2b638cc20bc4d0a60d66940f3ab4a00c1d7b313497ca82fb0b4ab0079300905090565b600033905090565b6000806117a761176c565b905060006117b4856119c9565b9050600073ffffffffffffffffffffffffffffffffffffffff168473ffffffffffffffffffffffffffffffffffffffff16146117f6576117f5818587612412565b5b600073ffffffffffffffffffffffffffffffffffffffff168173ffffffffffffffffffffffffffffffffffffffff1614611889576118386000866000806124d6565b60018260030160008373ffffffffffffffffffffffffffffffffffffffff1673ffffffffffffffffffffffffffffffffffffffff168152602001908152602001600020600082825403925050819055505b600073ffffffffffffffffffffffffffffffffffffffff168673ffffffffffffffffffffffffffffffffffffffff161461190e5760018260030160008873ffffffffffffffffffffffffffffffffffffffff1673ffffffffffffffffffffffffffffffffffffffff168152602001908152602001600020600082825401925050819055505b8582600201600087815260200190815260200160002060006101000a81548173ffffffffffffffffffffffffffffffffffffffff021916908373ffffffffffffffffffffffffffffffffffffffff160217905550848673ffffffffffffffffffffffffffffffffffffffff168273ffffffffffffffffffffffffffffffffffffffff167fddf252ad1be2c89b69c2b068fc378daa952ba7f163c4a11628f55a4df523b3ef60405160405180910390a480925050509392505050565b6000806119d461176c565b905080600201600084815260200190815260200160002060009054906101000a900473ffffffffffffffffffffffffffffffffffffffff16915050919050565b7f000000000000000000000000000000000000000000000000000000000000000073ffffffffffffffffffffffffffffffffffffffff163073ffffffffffffffffffffffffffffffffffffffff161480611ac157507f000000000000000000000000000000000000000000000000000000000000000073ffffffffffffffffffffffffffffffffffffffff16611aa86126aa565b73ffffffffffffffffffffffffffffffffffffffff1614155b15611af8576040517fe07c8dba00000000000000000000000000000000000000000000000000000000815260040160405180910390fd5b565b611b0261167b565b50565b8173ffffffffffffffffffffffffffffffffffffffff166352d1902d6040518163ffffffff1660e01b8152600401602060405180830381865afa925050508015611b6d57506040513d601f19601f82011682018060405250810190611b6a9190614605565b60015b611bae57816040517f4c9c8ce3000000000000000000000000000000000000000000000000000000008152600401611ba591906131af565b60405180910390fd5b7f360894a13ba1a3210667c828492db98dca3e2076cc3735a920a3ca505d382bbc60001b8114611c1557806040517faa1d49a4000000000000000000000000000000000000000000000000000000008152600401611c0c919061353b565b60405180910390fd5b611c1f8383612701565b505050565b7f000000000000000000000000000000000000000000000000000000000000000073ffffffffffffffffffffffffffffffffffffffff163073ffffffffffffffffffffffffffffffffffffffff1614611ca9576040517fe07c8dba00000000000000000000000000000000000000000000000000000000815260040160405180910390fd5b565b600080611cb7836119c9565b9050600073ffffffffffffffffffffffffffffffffffffffff168173ffffffffffffffffffffffffffffffffffffffff1603611d2a57826040517f7e273289000000000000000000000000000000000000000000000000000000008152600401611d219190613612565b60405180910390fd5b80915050919050565b6000611d3d61200b565b905060008160000160009054906101000a900473ffffffffffffffffffffffffffffffffffffffff169050828260000160006101000a81548173ffffffffffffffffffffffffffffffffffffffff021916908373ffffffffffffffffffffffffffffffffffffffff1602179055508273ffffffffffffffffffffffffffffffffffffffff168173ffffffffffffffffffffffffffffffffffffffff167f8be0079c531659141344cd1fd0a4f28419497f9722a3daafe3b4186f6b6457e060405160405180910390a3505050565b611e12612ec7565b60008260ff1603611e6a576040518060a00160405280600161ffff168152602001600a63ffffffff16815260200160a063ffffffff1681526020016103e863ffffffff168152602001600060ff168152509050611f0c565b60018260ff1603611ec3576040518060a00160405280600161ffff168152602001601963ffffffff16815260200161012c63ffffffff16815260200161096063ffffffff168152602001600160ff168152509050611f0c565b6040518060a00160405280600161ffff168152602001600463ffffffff168152602001608c63ffffffff16815260200161070863ffffffff168152602001600260ff1681525090505b919050565b600060026000815480929190611f2690614661565b919050559050611f368382612774565b8160008083815260200190815260200160002060008201518160000160006101000a81548161ffff021916908361ffff16021790555060208201518160000160026101000a81548163ffffffff021916908363ffffffff16021790555060408201518160000160066101000a81548163ffffffff021916908363ffffffff160217905550606082015181600001600a6101000a81548163ffffffff021916908363ffffffff160217905550608082015181600001600e6101000a81548160ff021916908360ff16021790555090505092915050565b60007f9016d09d72d40fdae2fd8ceac6b6234c7706214fd39c1cd1e609a0528c199300905090565b60008061203e612792565b90508091505090565b61204f6127bd565b61205982826127fd565b5050565b6120656127bd565b61206e8161283a565b50565b6120796127bd565b565b60008373ffffffffffffffffffffffffffffffffffffffff163b1115612225578273ffffffffffffffffffffffffffffffffffffffff1663150b7a02868685856040518563ffffffff1660e01b81526004016120da94939291906146fe565b6020604051808303816000875af192505050801561211657506040513d601f19601f82011682018060405250810190612113919061475f565b60015b61219a573d8060008114612146576040519150601f19603f3d011682016040523d82523d6000602084013e61214b565b606091505b50600081510361219257836040517f64a0ae9200000000000000000000000000000000000000000000000000000000815260040161218991906131af565b60405180910390fd5b805160208201fd5b63150b7a0260e01b7bffffffffffffffffffffffffffffffffffffffffffffffffffffffff1916817bffffffffffffffffffffffffffffffffffffffffffffffffffffffff19161461222357836040517f64a0ae9200000000000000000000000000000000000000000000000000000000815260040161221a91906131af565b60405180910390fd5b505b5050505050565b600061223b600083600061179c565b9050600073ffffffffffffffffffffffffffffffffffffffff168173ffffffffffffffffffffffffffffffffffffffff16036122ae57816040517f7e2732890000000000000000000000000000000000000000000000000000000081526004016122a59190613612565b60405180910390fd5b5050565b6060600380546122c190613a7e565b80601f01602080910402602001604051908101604052809291908181526020018280546122ed90613a7e565b801561233a5780601f1061230f5761010080835404028352916020019161233a565b820191906000526020600020905b81548152906001019060200180831161231d57829003601f168201915b5050505050905090565b606060006001612353846128c0565b01905060008167ffffffffffffffff8111156123725761237161339b565b5b6040519080825280601f01601f1916602001820160405280156123a45781602001600182028036833780820191505090505b509050600082602083010190505b600115612407578080600190039150507f3031323334353637383961626364656600000000000000000000000000000000600a86061a8153600a85816123fb576123fa61478c565b5b049450600085036123b2575b819350505050919050565b61241d838383612a13565b6124d157600073ffffffffffffffffffffffffffffffffffffffff168373ffffffffffffffffffffffffffffffffffffffff160361249257806040517f7e2732890000000000000000000000000000000000000000000000000000000081526004016124899190613612565b60405180910390fd5b81816040517f177e802f0000000000000000000000000000000000000000000000000000000081526004016124c89291906139e4565b60405180910390fd5b505050565b60006124e061176c565b9050818061251b5750600073ffffffffffffffffffffffffffffffffffffffff168373ffffffffffffffffffffffffffffffffffffffff1614155b1561264f57600061252b85611cab565b9050600073ffffffffffffffffffffffffffffffffffffffff168473ffffffffffffffffffffffffffffffffffffffff161415801561259657508373ffffffffffffffffffffffffffffffffffffffff168173ffffffffffffffffffffffffffffffffffffffff1614155b80156125a957506125a781856115ed565b155b156125eb57836040517fa9fbf51f0000000000000000000000000000000000000000000000000000000081526004016125e291906131af565b60405180910390fd5b821561264d57848673ffffffffffffffffffffffffffffffffffffffff168273ffffffffffffffffffffffffffffffffffffffff167f8c5be1e5ebec7d5bd14f71427d1e84f3dd0314c0f7b2291e5b200ac8c7c3b92560405160405180910390a45b505b8481600401600086815260200190815260200160002060006101000a81548173ffffffffffffffffffffffffffffffffffffffff021916908373ffffffffffffffffffffffffffffffffffffffff1602179055505050505050565b60006126d87f360894a13ba1a3210667c828492db98dca3e2076cc3735a920a3ca505d382bbc60001b612ad4565b60000160009054906101000a900473ffffffffffffffffffffffffffffffffffffffff16905090565b61270a82612ade565b8173ffffffffffffffffffffffffffffffffffffffff167fbc7cd75a20ee27fd9adebab32041f755214dbc6bffa90cc0225b39da2e5c2d3b60405160405180910390a2600081511115612767576127618282612bab565b50612770565b61276f612c2f565b5b5050565b61278e828260405180602001604052806000815250612c6c565b5050565b60007ff0c57e16840df040f15088dc2f81fe391c3923bec73e23a9662efc9c229c6a0060001b905090565b6127c5612c90565b6127fb576040517fd7e6bcf800000000000000000000000000000000000000000000000000000000815260040160405180910390fd5b565b6128056127bd565b600061280f61176c565b905082816000019081612822919061443d565b5081816001019081612834919061443d565b50505050565b6128426127bd565b600073ffffffffffffffffffffffffffffffffffffffff168173ffffffffffffffffffffffffffffffffffffffff16036128b45760006040517f1e4fbdf70000000000000000000000000000000000000000000000000000000081526004016128ab91906131af565b60405180910390fd5b6128bd81611d33565b50565b600080600090507a184f03e93ff9f4daa797ed6e38ed64bf6a1f010000000000000000831061291e577a184f03e93ff9f4daa797ed6e38ed64bf6a1f01000000000000000083816129145761291361478c565b5b0492506040810190505b6d04ee2d6d415b85acef8100000000831061295b576d04ee2d6d415b85acef810000000083816129515761295061478c565b5b0492506020810190505b662386f26fc10000831061298a57662386f26fc1000083816129805761297f61478c565b5b0492506010810190505b6305f5e10083106129b3576305f5e10083816129a9576129a861478c565b5b0492506008810190505b61271083106129d85761271083816129ce576129cd61478c565b5b0492506004810190505b606483106129fb57606483816129f1576129f061478c565b5b0492506002810190505b600a8310612a0a576001810190505b80915050919050565b60008073ffffffffffffffffffffffffffffffffffffffff168373ffffffffffffffffffffffffffffffffffffffff1614158015612acb57508273ffffffffffffffffffffffffffffffffffffffff168473ffffffffffffffffffffffffffffffffffffffff161480612a8c5750612a8b84846115ed565b5b80612aca57508273ffffffffffffffffffffffffffffffffffffffff16612ab283612cb0565b73ffffffffffffffffffffffffffffffffffffffff16145b5b90509392505050565b6000819050919050565b60008173ffffffffffffffffffffffffffffffffffffffff163b03612b3a57806040517f4c9c8ce3000000000000000000000000000000000000000000000000000000008152600401612b3191906131af565b60405180910390fd5b80612b677f360894a13ba1a3210667c828492db98dca3e2076cc3735a920a3ca505d382bbc60001b612ad4565b60000160006101000a81548173ffffffffffffffffffffffffffffffffffffffff021916908373ffffffffffffffffffffffffffffffffffffffff16021790555050565b60606000808473ffffffffffffffffffffffffffffffffffffffff1684604051612bd591906147f7565b600060405180830381855af49150503d8060008114612c10576040519150601f19603f3d011682016040523d82523d6000602084013e612c15565b606091505b5091509150612c25858383612cfb565b9250505092915050565b6000341115612c6a576040517fb398979f00000000000000000000000000000000000000000000000000000000815260040160405180910390fd5b565b612c768383612d8a565b612c8b612c81611794565b600085858561207b565b505050565b6000612c9a612033565b60000160089054906101000a900460ff16905090565b600080612cbb61176c565b905080600401600084815260200190815260200160002060009054906101000a900473ffffffffffffffffffffffffffffffffffffffff16915050919050565b606082612d1057612d0b82612e83565b612d82565b60008251148015612d38575060008473ffffffffffffffffffffffffffffffffffffffff163b145b15612d7a57836040517f9996b315000000000000000000000000000000000000000000000000000000008152600401612d7191906131af565b60405180910390fd5b819050612d83565b5b9392505050565b600073ffffffffffffffffffffffffffffffffffffffff168273ffffffffffffffffffffffffffffffffffffffff1603612dfc5760006040517f64a0ae92000000000000000000000000000000000000000000000000000000008152600401612df391906131af565b60405180910390fd5b6000612e0a8383600061179c565b9050600073ffffffffffffffffffffffffffffffffffffffff168173ffffffffffffffffffffffffffffffffffffffff1614612e7e5760006040517f73c6ac6e000000000000000000000000000000000000000000000000000000008152600401612e7591906131af565b60405180910390fd5b505050565b600081511115612e9557805160208201fd5b6040517fd6bda27500000000000000000000000000000000000000000000000000000000815260040160405180910390fd5b6040518060a00160405280600061ffff168152602001600063ffffffff168152602001600063ffffffff168152602001600063ffffffff168152602001600060ff1681525090565b6040518060600160405280600390602082028036833780820191505090505090565b6000604051905090565b600080fd5b600080fd5b600073ffffffffffffffffffffffffffffffffffffffff82169050919050565b6000612f7082612f45565b9050919050565b612f8081612f65565b8114612f8b57600080fd5b50565b600081359050612f9d81612f77565b92915050565b600060208284031215612fb957612fb8612f3b565b5b6000612fc784828501612f8e565b91505092915050565b60007fffffffff0000000000000000000000000000000000000000000000000000000082169050919050565b61300581612fd0565b811461301057600080fd5b50565b60008135905061302281612ffc565b92915050565b60006020828403121561303e5761303d612f3b565b5b600061304c84828501613013565b91505092915050565b60008115159050919050565b61306a81613055565b82525050565b60006020820190506130856000830184613061565b92915050565b600081519050919050565b600082825260208201905092915050565b60005b838110156130c55780820151818401526020810190506130aa565b60008484015250505050565b6000601f19601f8301169050919050565b60006130ed8261308b565b6130f78185613096565b93506131078185602086016130a7565b613110816130d1565b840191505092915050565b6000602082019050818103600083015261313581846130e2565b905092915050565b6000819050919050565b6131508161313d565b811461315b57600080fd5b50565b60008135905061316d81613147565b92915050565b60006020828403121561318957613188612f3b565b5b60006131978482850161315e565b91505092915050565b6131a981612f65565b82525050565b60006020820190506131c460008301846131a0565b92915050565b600080604083850312156131e1576131e0612f3b565b5b60006131ef85828601612f8e565b92505060206132008582860161315e565b9150509250929050565b61321381613055565b811461321e57600080fd5b50565b6000813590506132308161320a565b92915050565b60006020828403121561324c5761324b612f3b565b5b600061325a84828501613221565b91505092915050565b60008060006060848603121561327c5761327b612f3b565b5b600061328a86828701612f8e565b935050602061329b86828701612f8e565b92505060406132ac8682870161315e565b9150509250925092565b600061ffff82169050919050565b6132cd816132b6565b82525050565b600063ffffffff82169050919050565b6132ec816132d3565b82525050565b600060ff82169050919050565b613308816132f2565b82525050565b60a08201600082015161332460008501826132c4565b50602082015161333760208501826132e3565b50604082015161334a60408501826132e3565b50606082015161335d60608501826132e3565b50608082015161337060808501826132ff565b50505050565b600060a08201905061338b600083018461330e565b92915050565b600080fd5b600080fd5b7f4e487b7100000000000000000000000000000000000000000000000000000000600052604160045260246000fd5b6133d3826130d1565b810181811067ffffffffffffffff821117156133f2576133f161339b565b5b80604052505050565b6000613405612f31565b905061341182826133ca565b919050565b600067ffffffffffffffff8211156134315761343061339b565b5b61343a826130d1565b9050602081019050919050565b82818337600083830152505050565b600061346961346484613416565b6133fb565b90508281526020810184848401111561348557613484613396565b5b613490848285613447565b509392505050565b600082601f8301126134ad576134ac613391565b5b81356134bd848260208601613456565b91505092915050565b600080604083850312156134dd576134dc612f3b565b5b60006134eb85828601612f8e565b925050602083013567ffffffffffffffff81111561350c5761350b612f40565b5b61351885828601613498565b9150509250929050565b6000819050919050565b61353581613522565b82525050565b6000602082019050613550600083018461352c565b92915050565b600080fd5b600080fd5b60008083601f84011261357657613575613391565b5b8235905067ffffffffffffffff81111561359357613592613556565b5b6020830191508360018202830111156135af576135ae61355b565b5b9250929050565b600080602083850312156135cd576135cc612f3b565b5b600083013567ffffffffffffffff8111156135eb576135ea612f40565b5b6135f785828601613560565b92509250509250929050565b61360c8161313d565b82525050565b60006020820190506136276000830184613603565b92915050565b600060039050919050565b600081905092915050565b6000819050919050565b6136568161313d565b82525050565b6000613668838361364d565b60208301905092915050565b6000602082019050919050565b61368a8161362d565b6136948184613638565b925061369f82613643565b8060005b838110156136d05781516136b7878261365c565b96506136c283613674565b9250506001810190506136a3565b505050505050565b60006060820190506136ed6000830184613681565b92915050565b6000806040838503121561370a57613709612f3b565b5b600061371885828601612f8e565b925050602061372985828601613221565b9150509250929050565b600080fd5b600060a0828403121561374e5761374d613733565b5b81905092915050565b60008060c0838503121561376e5761376d612f3b565b5b600061377c8582860161315e565b925050602061378d85828601613738565b9150509250929050565b600067ffffffffffffffff8211156137b2576137b161339b565b5b6137bb826130d1565b9050602081019050919050565b60006137db6137d684613797565b6133fb565b9050828152602081018484840111156137f7576137f6613396565b5b613802848285613447565b509392505050565b600082601f83011261381f5761381e613391565b5b813561382f8482602086016137c8565b91505092915050565b60008060006060848603121561385157613850612f3b565b5b600084013567ffffffffffffffff81111561386f5761386e612f40565b5b61387b8682870161380a565b935050602084013567ffffffffffffffff81111561389c5761389b612f40565b5b6138a88682870161380a565b925050604084013567ffffffffffffffff8111156138c9576138c8612f40565b5b6138d58682870161380a565b9150509250925092565b600080600080608085870312156138f9576138f8612f3b565b5b600061390787828801612f8e565b945050602061391887828801612f8e565b93505060406139298782880161315e565b925050606085013567ffffffffffffffff81111561394a57613949612f40565b5b61395687828801613498565b91505092959194509250565b6000806040838503121561397957613978612f3b565b5b600061398785828601612f8e565b925050602061399885828601612f8e565b9150509250929050565b6000815190506139b181613147565b92915050565b6000602082840312156139cd576139cc612f3b565b5b60006139db848285016139a2565b91505092915050565b60006040820190506139f960008301856131a0565b613a066020830184613603565b9392505050565b600081519050613a1c8161320a565b92915050565b600060208284031215613a3857613a37612f3b565b5b6000613a4684828501613a0d565b91505092915050565b7f4e487b7100000000000000000000000000000000000000000000000000000000600052602260045260246000fd5b60006002820490506001821680613a9657607f821691505b602082108103613aa957613aa8613a4f565b5b50919050565b6000606082019050613ac460008301866131a0565b613ad16020830185613603565b613ade60408301846131a0565b949350505050565b6000606082019050613afb60008301866131a0565b613b0860208301856131a0565b613b156040830184613603565b949350505050565b7f4e6f74206d696e74656400000000000000000000000000000000000000000000600082015250565b6000613b53600a83613096565b9150613b5e82613b1d565b602082019050919050565b60006020820190508181036000830152613b8281613b46565b9050919050565b600082905092915050565b60008190508160005260206000209050919050565b60006020601f8301049050919050565b600082821b905092915050565b600060088302613bf67fffffffffffffffffffffffffffffffffffffffffffffffffffffffffffffffff82613bb9565b613c008683613bb9565b95508019841693508086168417925050509392505050565b6000819050919050565b6000613c3d613c38613c338461313d565b613c18565b61313d565b9050919050565b6000819050919050565b613c5783613c22565b613c6b613c6382613c44565b848454613bc6565b825550505050565b600090565b613c80613c73565b613c8b818484613c4e565b505050565b5b81811015613caf57613ca4600082613c78565b600181019050613c91565b5050565b601f821115613cf457613cc581613b94565b613cce84613ba9565b81016020851015613cdd578190505b613cf1613ce985613ba9565b830182613c90565b50505b505050565b600082821c905092915050565b6000613d1760001984600802613cf9565b1980831691505092915050565b6000613d308383613d06565b9150826002028217905092915050565b613d4a8383613b89565b67ffffffffffffffff811115613d6357613d6261339b565b5b613d6d8254613a7e565b613d78828285613cb3565b6000601f831160018114613da75760008415613d95578287013590505b613d9f8582613d24565b865550613e07565b601f198416613db586613b94565b60005b82811015613ddd57848901358255600182019150602085019450602081019050613db8565b86831015613dfa5784890135613df6601f891682613d06565b8355505b6001600288020188555050505b50505050505050565b7f4d696e74696e6720706175736564000000000000000000000000000000000000600082015250565b6000613e46600e83613096565b9150613e5182613e10565b602082019050919050565b60006020820190508181036000830152613e7581613e39565b9050919050565b7f416c7265616479206772616e7465640000000000000000000000000000000000600082015250565b6000613eb2600f83613096565b9150613ebd82613e7c565b602082019050919050565b60006020820190508181036000830152613ee181613ea5565b9050919050565b7f4e487b7100000000000000000000000000000000000000000000000000000000600052603260045260246000fd5b7f496e76616c696420746f6b656e00000000000000000000000000000000000000600082015250565b6000613f4d600d83613096565b9150613f5882613f17565b602082019050919050565b60006020820190508181036000830152613f7c81613f40565b9050919050565b613f8c816132b6565b8114613f9757600080fd5b50565b60008135613fa781613f83565b80915050919050565b60008160001b9050919050565b600061ffff613fcb84613fb0565b9350801983169250808416831791505092915050565b6000613ffc613ff7613ff2846132b6565b613c18565b6132b6565b9050919050565b6000819050919050565b61401682613fe1565b61402961402282614003565b8354613fbd565b8255505050565b614039816132d3565b811461404457600080fd5b50565b6000813561405481614030565b80915050919050565b60008160101b9050919050565b600065ffffffff000061407c8461405d565b9350801983169250808416831791505092915050565b60006140ad6140a86140a3846132d3565b613c18565b6132d3565b9050919050565b6000819050919050565b6140c782614092565b6140da6140d3826140b4565b835461406a565b8255505050565b60008160301b9050919050565b600069ffffffff000000000000614104846140e1565b9350801983169250808416831791505092915050565b61412382614092565b61413661412f826140b4565b83546140ee565b8255505050565b60008160501b9050919050565b60006dffffffff000000000000000000006141648461413d565b9350801983169250808416831791505092915050565b61418382614092565b61419661418f826140b4565b835461414a565b8255505050565b6141a6816132f2565b81146141b157600080fd5b50565b600081356141c18161419d565b80915050919050565b60008160701b9050919050565b60006eff00000000000000000000000000006141f2846141ca565b9350801983169250808416831791505092915050565b600061422361421e614219846132f2565b613c18565b6132f2565b9050919050565b6000819050919050565b61423d82614208565b6142506142498261422a565b83546141d7565b8255505050565b60008101600083018061426981613f9a565b9050614275818461400d565b50505060008101602083018061428a81614047565b905061429681846140be565b5050506000810160408301806142ab81614047565b90506142b7818461411a565b5050506000810160608301806142cc81614047565b90506142d8818461417a565b5050506000810160808301806142ed816141b4565b90506142f98184614234565b5050505050565b61430a8282614257565b5050565b60008135905061431d81613f83565b92915050565b6000614332602084018461430e565b905092915050565b60008135905061434981614030565b92915050565b600061435e602084018461433a565b905092915050565b6000813590506143758161419d565b92915050565b600061438a6020840184614366565b905092915050565b60a082016143a36000830183614323565b6143b060008501826132c4565b506143be602083018361434f565b6143cb60208501826132e3565b506143d9604083018361434f565b6143e660408501826132e3565b506143f4606083018361434f565b61440160608501826132e3565b5061440f608083018361437b565b61441c60808501826132ff565b50505050565b600060a0820190506144376000830184614392565b92915050565b6144468261308b565b67ffffffffffffffff81111561445f5761445e61339b565b5b6144698254613a7e565b614474828285613cb3565b600060209050601f8311600181146144a75760008415614495578287015190505b61449f8582613d24565b865550614507565b601f1984166144b586613b94565b60005b828110156144dd578489015182556001820191506020850194506020810190506144b8565b868310156144fa57848901516144f6601f891682613d06565b8355505b6001600288020188555050505b505050505050565b6000819050919050565b600067ffffffffffffffff82169050919050565b600061454861454361453e8461450f565b613c18565b614519565b9050919050565b6145588161452d565b82525050565b6000602082019050614573600083018461454f565b92915050565b600081905092915050565b600061458f8261308b565b6145998185614579565b93506145a98185602086016130a7565b80840191505092915050565b60006145c18285614584565b91506145cd8284614584565b91508190509392505050565b6145e281613522565b81146145ed57600080fd5b50565b6000815190506145ff816145d9565b92915050565b60006020828403121561461b5761461a612f3b565b5b6000614629848285016145f0565b91505092915050565b7f4e487b7100000000000000000000000000000000000000000000000000000000600052601160045260246000fd5b600061466c8261313d565b91507fffffffffffffffffffffffffffffffffffffffffffffffffffffffffffffffff820361469e5761469d614632565b5b600182019050919050565b600081519050919050565b600082825260208201905092915050565b60006146d0826146a9565b6146da81856146b4565b93506146ea8185602086016130a7565b6146f3816130d1565b840191505092915050565b600060808201905061471360008301876131a0565b61472060208301866131a0565b61472d6040830185613603565b818103606083015261473f81846146c5565b905095945050505050565b60008151905061475981612ffc565b92915050565b60006020828403121561477557614774612f3b565b5b60006147838482850161474a565b91505092915050565b7f4e487b7100000000000000000000000000000000000000000000000000000000600052601260045260246000fd5b600081905092915050565b60006147d1826146a9565b6147db81856147bb565b93506147eb8185602086016130a7565b80840191505092915050565b600061480382846147c6565b91508190509291505056fea264697066735822122018af621ba31ca27456b5a9e88b7e624c2f5fc07620c3a789002846eeb5334db364736f6c634300081c0033",
  "linkReferences": {},
  "deployedLinkReferences": {}
}